{"abi":[{"type":"constructor","inputs":[{"name":"initialMembers","type":"address[]","internalType":"address[]"}],"stateMutability":"nonpayable"},{"type":"function","name":"createProposal","inputs":[{"name":"description","type":"string","internalType":"string"}],"outputs":[],"stateMutability":"nonpayable"},{"type":"function","name":"executeProposal","inputs":[],"outputs":[],"stateMutability":"nonpayable"},{"type":"function","name":"members","inputs":[{"name":"","type":"address","internalType":"address"}],"outputs":[{"name":"","type":"bool","internalType":"bool"}],"stateMutability":"view"},{"type":"function","name":"proposals","inputs":[{"name":"","type":"uint256","internalType":"uint256"}],"outputs":[{"name":"description","type":"string","internalType":"string"},{"name":"voteCount","type":"uint256","internalType":"uint256"}],"stateMutability":"view"},{"type":"function","name":"voteOnProposal","inputs":[{"name":"proposalIndex","type":"uint256","internalType":"uint256"}],"outputs":[],"stateMutability":"nonpayable"},{"type":"function","name":"votes","inputs":[{"name":"","type":"address","internalType":"address"},{"name":"","type":"uint256","internalType":"uint256"}],"outputs":[{"name":"","type":"bool","internalType":"bool"}],"stateMutability":"view"}],"bytecode":{"object":"0x608060405234801561000f575f5ffd5b50604051610ac9380380610ac98339818101604052810190610031919061027c565b5f5f90505b81518110156100ba576001805f848481518110610056576100556102c3565b5b602002602001015173ffffffffffffffffffffffffffffffffffffffff1673ffffffffffffffffffffffffffffffffffffffff1681526020019081526020015f205f6101000a81548160ff0219169083151502179055508080600101915050610036565b50506102f0565b5f604051905090565b5f5ffd5b5f5ffd5b5f5ffd5b5f601f19601f8301169050919050565b7f4e487b71000000000000000000000000000000000000000000000000000000005f52604160045260245ffd5b61011c826100d6565b810181811067ffffffffffffffff8211171561013b5761013a6100e6565b5b80604052505050565b5f61014d6100c1565b90506101598282610113565b919050565b5f67ffffffffffffffff821115610178576101776100e6565b5b602082029050602081019050919050565b5f5ffd5b5f73ffffffffffffffffffffffffffffffffffffffff82169050919050565b5f6101b68261018d565b9050919050565b6101c6816101ac565b81146101d0575f5ffd5b50565b5f815190506101e1816101bd565b92915050565b5f6101f96101f48461015e565b610144565b9050808382526020820190506020840283018581111561021c5761021b610189565b5b835b81811015610245578061023188826101d3565b84526020840193505060208101905061021e565b5050509392505050565b5f82601f830112610263576102626100d2565b5b81516102738482602086016101e7565b91505092915050565b5f60208284031215610291576102906100ca565b5b5f82015167ffffffffffffffff8111156102ae576102ad6100ce565b5b6102ba8482850161024f565b91505092915050565b7f4e487b71000000000000000000000000000000000000000000000000000000005f52603260045260245ffd5b6107cc806102fd5f395ff3fe608060405234801561000f575f5ffd5b5060043610610060575f3560e01c8063013cf08b1461006457806308ae4b0c14610095578063373058b8146100c557806349c2a1a6146100cf5780639f2524ee146100eb578063add68edc1461011b575b5f5ffd5b61007e60048036038101906100799190610390565b610137565b60405161008c92919061043a565b60405180910390f35b6100af60048036038101906100aa91906104c2565b6101eb565b6040516100bc9190610507565b60405180910390f35b6100cd610208565b005b6100e960048036038101906100e4919061064c565b61020a565b005b61010560048036038101906101009190610693565b610296565b6040516101129190610507565b60405180910390f35b61013560048036038101906101309190610390565b6102c0565b005b5f8181548110610145575f80fd5b905f5260205f2090600202015f91509050805f018054610164906106fe565b80601f0160208091040260200160405190810160405280929190818152602001828054610190906106fe565b80156101db5780601f106101b2576101008083540402835291602001916101db565b820191905f5260205f20905b8154815290600101906020018083116101be57829003601f168201915b5050505050908060010154905082565b6001602052805f5260405f205f915054906101000a900460ff1681565b565b60015f3373ffffffffffffffffffffffffffffffffffffffff1673ffffffffffffffffffffffffffffffffffffffff1681526020019081526020015f205f9054906101000a900460ff16610293576040517f08c379a000000000000000000000000000000000000000000000000000000000815260040161028a90610778565b60405180910390fd5b50565b6002602052815f5260405f20602052805f5260405f205f915091509054906101000a900460ff1681565b60015f3373ffffffffffffffffffffffffffffffffffffffff1673ffffffffffffffffffffffffffffffffffffffff1681526020019081526020015f205f9054906101000a900460ff16610349576040517f08c379a000000000000000000000000000000000000000000000000000000000815260040161034090610778565b60405180910390fd5b50565b5f604051905090565b5f5ffd5b5f5ffd5b5f819050919050565b61036f8161035d565b8114610379575f5ffd5b50565b5f8135905061038a81610366565b92915050565b5f602082840312156103a5576103a4610355565b5b5f6103b28482850161037c565b91505092915050565b5f81519050919050565b5f82825260208201905092915050565b8281835e5f83830152505050565b5f601f19601f8301169050919050565b5f6103fd826103bb565b61040781856103c5565b93506104178185602086016103d5565b610420816103e3565b840191505092915050565b6104348161035d565b82525050565b5f6040820190508181035f83015261045281856103f3565b9050610461602083018461042b565b9392505050565b5f73ffffffffffffffffffffffffffffffffffffffff82169050919050565b5f61049182610468565b9050919050565b6104a181610487565b81146104ab575f5ffd5b50565b5f813590506104bc81610498565b92915050565b5f602082840312156104d7576104d6610355565b5b5f6104e4848285016104ae565b91505092915050565b5f8115159050919050565b610501816104ed565b82525050565b5f60208201905061051a5f8301846104f8565b92915050565b5f5ffd5b5f5ffd5b7f4e487b71000000000000000000000000000000000000000000000000000000005f52604160045260245ffd5b61055e826103e3565b810181811067ffffffffffffffff8211171561057d5761057c610528565b5b80604052505050565b5f61058f61034c565b905061059b8282610555565b919050565b5f67ffffffffffffffff8211156105ba576105b9610528565b5b6105c3826103e3565b9050602081019050919050565b828183375f83830152505050565b5f6105f06105eb846105a0565b610586565b90508281526020810184848401111561060c5761060b610524565b5b6106178482856105d0565b509392505050565b5f82601f83011261063357610632610520565b5b81356106438482602086016105de565b91505092915050565b5f6020828403121561066157610660610355565b5b5f82013567ffffffffffffffff81111561067e5761067d610359565b5b61068a8482850161061f565b91505092915050565b5f5f604083850312156106a9576106a8610355565b5b5f6106b6858286016104ae565b92505060206106c78582860161037c565b9150509250929050565b7f4e487b71000000000000000000000000000000000000000000000000000000005f52602260045260245ffd5b5f600282049050600182168061071557607f821691505b602082108103610728576107276106d1565b5b50919050565b7f4e6f742061206d656d62657200000000000000000000000000000000000000005f82015250565b5f610762600c836103c5565b915061076d8261072e565b602082019050919050565b5f6020820190508181035f83015261078f81610756565b905091905056fea26469706673582212200458989e8b00742df74e188e10c9c2ed2339d920f755b296ecf091ffc285ef0764736f6c634300081c0033","linkReferences":{}},"methodIdentifiers":{"createProposal(string)":"49c2a1a6","executeProposal()":"373058b8","members(address)":"08ae4b0c","proposals(uint256)":"013cf08b","voteOnProposal(uint256)":"add68edc","votes(address,uint256)":"9f2524ee"},"id":44}