{"abi":[{"type":"constructor","inputs":[{"name":"initial","type":"string","internalType":"string"}],"stateMutability":"nonpayable"},{"type":"function","name":"ADMIN","inputs":[],"outputs":[{"name":"","type":"uint256","internalType":"uint256"}],"stateMutability":"view"},{"type":"function","name":"MODO","inputs":[],"outputs":[{"name":"","type":"uint256","internalType":"uint256"}],"stateMutability":"view"},{"type":"function","name":"message","inputs":[],"outputs":[{"name":"","type":"string","internalType":"string"}],"stateMutability":"view"},{"type":"function","name":"roles","inputs":[{"name":"","type":"address","internalType":"address"}],"outputs":[{"name":"","type":"uint256","internalType":"uint256"}],"stateMutability":"view"},{"type":"function","name":"setMessage","inputs":[{"name":"newMessage","type":"string","internalType":"string"}],"outputs":[],"stateMutability":"nonpayable"},{"type":"function","name":"setrole","inputs":[{"name":"who","type":"address","internalType":"address"},{"name":"_roles","type":"uint256","internalType":"uint256"}],"outputs":[],"stateMutability":"nonpayable"}],"bytecode":{"object":"0x608060405234801561000f575f5ffd5b50604051610f37380380610f37833981810160405281019061003191906101d6565b8060019081610040919061042d565b5060015f5f3373ffffffffffffffffffffffffffffffffffffffff1673ffffffffffffffffffffffffffffffffffffffff1681526020019081526020015f2081905550506104fc565b5f604051905090565b5f5ffd5b5f5ffd5b5f5ffd5b5f5ffd5b5f601f19601f8301169050919050565b7f4e487b71000000000000000000000000000000000000000000000000000000005f52604160045260245ffd5b6100e8826100a2565b810181811067ffffffffffffffff82111715610107576101066100b2565b5b80604052505050565b5f610119610089565b905061012582826100df565b919050565b5f67ffffffffffffffff821115610144576101436100b2565b5b61014d826100a2565b9050602081019050919050565b8281835e5f83830152505050565b5f61017a6101758461012a565b610110565b9050828152602081018484840111156101965761019561009e565b5b6101a184828561015a565b509392505050565b5f82601f8301126101bd576101bc61009a565b5b81516101cd848260208601610168565b91505092915050565b5f602082840312156101eb576101ea610092565b5b5f82015167ffffffffffffffff81111561020857610207610096565b5b610214848285016101a9565b91505092915050565b5f81519050919050565b7f4e487b71000000000000000000000000000000000000000000000000000000005f52602260045260245ffd5b5f600282049050600182168061026b57607f821691505b60208210810361027e5761027d610227565b5b50919050565b5f819050815f5260205f209050919050565b5f6020601f8301049050919050565b5f82821b905092915050565b5f600883026102e07fffffffffffffffffffffffffffffffffffffffffffffffffffffffffffffffff826102a5565b6102ea86836102a5565b95508019841693508086168417925050509392505050565b5f819050919050565b5f819050919050565b5f61032e61032961032484610302565b61030b565b610302565b9050919050565b5f819050919050565b61034783610314565b61035b61035382610335565b8484546102b1565b825550505050565b5f5f905090565b610372610363565b61037d81848461033e565b505050565b5b818110156103a0576103955f8261036a565b600181019050610383565b5050565b601f8211156103e5576103b681610284565b6103bf84610296565b810160208510156103ce578190505b6103e26103da85610296565b830182610382565b50505b505050565b5f82821c905092915050565b5f6104055f19846008026103ea565b1980831691505092915050565b5f61041d83836103f6565b9150826002028217905092915050565b6104368261021d565b67ffffffffffffffff81111561044f5761044e6100b2565b5b6104598254610254565b6104648282856103a4565b5f60209050601f831160018114610495575f8415610483578287015190505b61048d8582610412565b8655506104f4565b601f1984166104a386610284565b5f5b828110156104ca578489015182556001820191506020850194506020810190506104a5565b868310156104e757848901516104e3601f8916826103f6565b8355505b6001600288020188555050505b505050505050565b610a2e806105095f395ff3fe608060405234801561000f575f5ffd5b5060043610610060575f3560e01c80632a0acc6a14610064578063368b877214610082578063993746421461009e578063b77844ff146100ce578063e21f37ce146100ea578063ef23297914610108575b5f5ffd5b61006c610126565b6040516100799190610342565b60405180910390f35b61009c600480360381019061009791906104a8565b61012b565b005b6100b860048036038101906100b39190610549565b6101bf565b6040516100c59190610342565b60405180910390f35b6100e860048036038101906100e3919061059e565b6101d3565b005b6100f2610299565b6040516100ff919061063c565b60405180910390f35b610110610325565b60405161011d9190610342565b60405180910390f35b600181565b5f60025f5f3373ffffffffffffffffffffffffffffffffffffffff1673ffffffffffffffffffffffffffffffffffffffff1681526020019081526020015f205416036101ac576040517f08c379a00000000000000000000000000000000000000000000000000000000081526004016101a3906106a6565b60405180910390fd5b80600190816101bb91906108c1565b5050565b5f602052805f5260405f205f915090505481565b5f60015f5f3373ffffffffffffffffffffffffffffffffffffffff1673ffffffffffffffffffffffffffffffffffffffff1681526020019081526020015f20541603610254576040517f08c379a000000000000000000000000000000000000000000000000000000000815260040161024b906109da565b60405180910390fd5b805f5f8473ffffffffffffffffffffffffffffffffffffffff1673ffffffffffffffffffffffffffffffffffffffff1681526020019081526020015f20819055505050565b600180546102a6906106f1565b80601f01602080910402602001604051908101604052809291908181526020018280546102d2906106f1565b801561031d5780601f106102f45761010080835404028352916020019161031d565b820191905f5260205f20905b81548152906001019060200180831161030057829003601f168201915b505050505081565b600281565b5f819050919050565b61033c8161032a565b82525050565b5f6020820190506103555f830184610333565b92915050565b5f604051905090565b5f5ffd5b5f5ffd5b5f5ffd5b5f5ffd5b5f601f19601f8301169050919050565b7f4e487b71000000000000000000000000000000000000000000000000000000005f52604160045260245ffd5b6103ba82610374565b810181811067ffffffffffffffff821117156103d9576103d8610384565b5b80604052505050565b5f6103eb61035b565b90506103f782826103b1565b919050565b5f67ffffffffffffffff82111561041657610415610384565b5b61041f82610374565b9050602081019050919050565b828183375f83830152505050565b5f61044c610447846103fc565b6103e2565b90508281526020810184848401111561046857610467610370565b5b61047384828561042c565b509392505050565b5f82601f83011261048f5761048e61036c565b5b813561049f84826020860161043a565b91505092915050565b5f602082840312156104bd576104bc610364565b5b5f82013567ffffffffffffffff8111156104da576104d9610368565b5b6104e68482850161047b565b91505092915050565b5f73ffffffffffffffffffffffffffffffffffffffff82169050919050565b5f610518826104ef565b9050919050565b6105288161050e565b8114610532575f5ffd5b50565b5f813590506105438161051f565b92915050565b5f6020828403121561055e5761055d610364565b5b5f61056b84828501610535565b91505092915050565b61057d8161032a565b8114610587575f5ffd5b50565b5f8135905061059881610574565b92915050565b5f5f604083850312156105b4576105b3610364565b5b5f6105c185828601610535565b92505060206105d28582860161058a565b9150509250929050565b5f81519050919050565b5f82825260208201905092915050565b8281835e5f83830152505050565b5f61060e826105dc565b61061881856105e6565b93506106288185602086016105f6565b61063181610374565b840191505092915050565b5f6020820190508181035f8301526106548184610604565b905092915050565b7f4f6e6c79206d6f646f206f722061646d696e00000000000000000000000000005f82015250565b5f6106906012836105e6565b915061069b8261065c565b602082019050919050565b5f6020820190508181035f8301526106bd81610684565b9050919050565b7f4e487b71000000000000000000000000000000000000000000000000000000005f52602260045260245ffd5b5f600282049050600182168061070857607f821691505b60208210810361071b5761071a6106c4565b5b50919050565b5f819050815f5260205f209050919050565b5f6020601f8301049050919050565b5f82821b905092915050565b5f6008830261077d7fffffffffffffffffffffffffffffffffffffffffffffffffffffffffffffffff82610742565b6107878683610742565b95508019841693508086168417925050509392505050565b5f819050919050565b5f6107c26107bd6107b88461032a565b61079f565b61032a565b9050919050565b5f819050919050565b6107db836107a8565b6107ef6107e7826107c9565b84845461074e565b825550505050565b5f5f905090565b6108066107f7565b6108118184846107d2565b505050565b5b81811015610834576108295f826107fe565b600181019050610817565b5050565b601f8211156108795761084a81610721565b61085384610733565b81016020851015610862578190505b61087661086e85610733565b830182610816565b50505b505050565b5f82821c905092915050565b5f6108995f198460080261087e565b1980831691505092915050565b5f6108b1838361088a565b9150826002028217905092915050565b6108ca826105dc565b67ffffffffffffffff8111156108e3576108e2610384565b5b6108ed82546106f1565b6108f8828285610838565b5f60209050601f831160018114610929575f8415610917578287015190505b61092185826108a6565b865550610988565b601f19841661093786610721565b5f5b8281101561095e57848901518255600182019150602085019450602081019050610939565b8683101561097b5784890151610977601f89168261088a565b8355505b6001600288020188555050505b505050505050565b7f4f6e6c792061646d696e000000000000000000000000000000000000000000005f82015250565b5f6109c4600a836105e6565b91506109cf82610990565b602082019050919050565b5f6020820190508181035f8301526109f1816109b8565b905091905056fea2646970667358221220431c316d09a29262cb13bb0a19454f4f1ea9090d70ec8d28953479d6613ed11764736f6c634300081c0033","linkReferences":{}},"methodIdentifiers":{"ADMIN()":"2a0acc6a","MODO()":"ef232979","message()":"e21f37ce","roles(address)":"99374642","setMessage(string)":"368b8772","setrole(address,uint256)":"b77844ff"},"id":54}