{"abi":[{"type":"constructor","inputs":[{"name":"delayInSeconds","type":"uint256","internalType":"uint256"}],"stateMutability":"nonpayable"},{"type":"function","name":"actionAvailableAfter","inputs":[],"outputs":[{"name":"","type":"uint256","internalType":"uint256"}],"stateMutability":"view"},{"type":"function","name":"actionTaken","inputs":[],"outputs":[{"name":"","type":"bool","internalType":"bool"}],"stateMutability":"view"},{"type":"function","name":"performAction","inputs":[],"outputs":[],"stateMutability":"nonpayable"}],"bytecode":{"object":"0x60806040525f60015f6101000a81548160ff021916908315150217905550348015610028575f5ffd5b50604051610367380380610367833981810160405281019061004a9190610098565b804261005691906100f0565b5f8190555050610123565b5f5ffd5b5f819050919050565b61007781610065565b8114610081575f5ffd5b50565b5f815190506100928161006e565b92915050565b5f602082840312156100ad576100ac610061565b5b5f6100ba84828501610084565b91505092915050565b7f4e487b71000000000000000000000000000000000000000000000000000000005f52601160045260245ffd5b5f6100fa82610065565b915061010583610065565b925082820190508082111561011d5761011c6100c3565b5b92915050565b610237806101305f395ff3fe608060405234801561000f575f5ffd5b506004361061003f575f3560e01c806325fd5ed0146100435780636c18f73e14610061578063a91808c91461006b575b5f5ffd5b61004b610089565b6040516100589190610119565b60405180910390f35b61006961009b565b005b6100736100fa565b604051610080919061014a565b60405180910390f35b60015f9054906101000a900460ff1681565b5f544211156100df576040517f08c379a00000000000000000000000000000000000000000000000000000000081526004016100d6906101e3565b60405180910390fd5b6001805f6101000a81548160ff021916908315150217905550565b5f5481565b5f8115159050919050565b610113816100ff565b82525050565b5f60208201905061012c5f83018461010a565b92915050565b5f819050919050565b61014481610132565b82525050565b5f60208201905061015d5f83018461013b565b92915050565b5f82825260208201905092915050565b7f416374696f6e2073686f756c642062652074616b656e2061667465722074696d5f8201527f652064656c617900000000000000000000000000000000000000000000000000602082015250565b5f6101cd602783610163565b91506101d882610173565b604082019050919050565b5f6020820190508181035f8301526101fa816101c1565b905091905056fea264697066735822122078507c97d716972efe2480b17491a4978916b2797756360bfc55d8d2d431224f64736f6c634300081c0033","linkReferences":{}},"methodIdentifiers":{"actionAvailableAfter()":"a91808c9","actionTaken()":"25fd5ed0","performAction()":"6c18f73e"},"id":41}