{"abi":[{"type":"constructor","inputs":[],"stateMutability":"nonpayable"},{"type":"function","name":"admin","inputs":[],"outputs":[{"name":"","type":"address","internalType":"address"}],"stateMutability":"view"},{"type":"function","name":"approve","inputs":[{"name":"to","type":"address","internalType":"address"},{"name":"tokenId","type":"uint256","internalType":"uint256"}],"outputs":[],"stateMutability":"nonpayable"},{"type":"function","name":"balanceOf","inputs":[{"name":"owner","type":"address","internalType":"address"}],"outputs":[{"name":"","type":"uint256","internalType":"uint256"}],"stateMutability":"view"},{"type":"function","name":"getApproved","inputs":[{"name":"tokenId","type":"uint256","internalType":"uint256"}],"outputs":[{"name":"","type":"address","internalType":"address"}],"stateMutability":"view"},{"type":"function","name":"isApprovedForAll","inputs":[{"name":"owner","type":"address","internalType":"address"},{"name":"operator","type":"address","internalType":"address"}],"outputs":[{"name":"","type":"bool","internalType":"bool"}],"stateMutability":"view"},{"type":"function","name":"mint","inputs":[{"name":"to","type":"address","internalType":"address"}],"outputs":[],"stateMutability":"nonpayable"},{"type":"function","name":"name","inputs":[],"outputs":[{"name":"","type":"string","internalType":"string"}],"stateMutability":"view"},{"type":"function","name":"ownerOf","inputs":[{"name":"tokenId","type":"uint256","internalType":"uint256"}],"outputs":[{"name":"","type":"address","internalType":"address"}],"stateMutability":"view"},{"type":"function","name":"safeTransferFrom","inputs":[{"name":"from","type":"address","internalType":"address"},{"name":"to","type":"address","internalType":"address"},{"name":"tokenId","type":"uint256","internalType":"uint256"}],"outputs":[],"stateMutability":"nonpayable"},{"type":"function","name":"safeTransferFrom","inputs":[{"name":"from","type":"address","internalType":"address"},{"name":"to","type":"address","internalType":"address"},{"name":"tokenId","type":"uint256","internalType":"uint256"},{"name":"data","type":"bytes","internalType":"bytes"}],"outputs":[],"stateMutability":"nonpayable"},{"type":"function","name":"setApprovalForAll","inputs":[{"name":"operator","type":"address","internalType":"address"},{"name":"approved","type":"bool","internalType":"bool"}],"outputs":[],"stateMutability":"nonpayable"},{"type":"function","name":"supportsInterface","inputs":[{"name":"interfaceId","type":"bytes4","internalType":"bytes4"}],"outputs":[{"name":"","type":"bool","internalType":"bool"}],"stateMutability":"view"},{"type":"function","name":"symbol","inputs":[],"outputs":[{"name":"","type":"string","internalType":"string"}],"stateMutability":"view"},{"type":"function","name":"tokenURI","inputs":[{"name":"tokenId","type":"uint256","internalType":"uint256"}],"outputs":[{"name":"","type":"string","internalType":"string"}],"stateMutability":"view"},{"type":"function","name":"transferFrom","inputs":[{"name":"from","type":"address","internalType":"address"},{"name":"to","type":"address","internalType":"address"},{"name":"tokenId","type":"uint256","internalType":"uint256"}],"outputs":[],"stateMutability":"nonpayable"},{"type":"event","name":"Approval","inputs":[{"name":"owner","type":"address","indexed":true,"internalType":"address"},{"name":"approved","type":"address","indexed":true,"internalType":"address"},{"name":"tokenId","type":"uint256","indexed":true,"internalType":"uint256"}],"anonymous":false},{"type":"event","name":"ApprovalForAll","inputs":[{"name":"owner","type":"address","indexed":true,"internalType":"address"},{"name":"operator","type":"address","indexed":true,"internalType":"address"},{"name":"approved","type":"bool","indexed":false,"internalType":"bool"}],"anonymous":false},{"type":"event","name":"Transfer","inputs":[{"name":"from","type":"address","indexed":true,"internalType":"address"},{"name":"to","type":"address","indexed":true,"internalType":"address"},{"name":"tokenId","type":"uint256","indexed":true,"internalType":"uint256"}],"anonymous":false},{"type":"error","name":"ERC721IncorrectOwner","inputs":[{"name":"sender","type":"address","internalType":"address"},{"name":"tokenId","type":"uint256","internalType":"uint256"},{"name":"owner","type":"address","internalType":"address"}]},{"type":"error","name":"ERC721InsufficientApproval","inputs":[{"name":"operator","type":"address","internalType":"address"},{"name":"tokenId","type":"uint256","internalType":"uint256"}]},{"type":"error","name":"ERC721InvalidApprover","inputs":[{"name":"approver","type":"address","internalType":"address"}]},{"type":"error","name":"ERC721InvalidOperator","inputs":[{"name":"operator","type":"address","internalType":"address"}]},{"type":"error","name":"ERC721InvalidOwner","inputs":[{"name":"owner","type":"address","internalType":"address"}]},{"type":"error","name":"ERC721InvalidReceiver","inputs":[{"name":"receiver","type":"address","internalType":"address"}]},{"type":"error","name":"ERC721InvalidSender","inputs":[{"name":"sender","type":"address","internalType":"address"}]},{"type":"error","name":"ERC721NonexistentToken","inputs":[{"name":"tokenId","type":"uint256","internalType":"uint256"}]}],"bytecode":{"object":"0x608060405234801561000f575f5ffd5b506040518060400160405280600c81526020017f53696d706c6545524337323100000000000000000000000000000000000000008152506040518060400160405280600781526020017f5345524337323100000000000000000000000000000000000000000000000000815250815f908161008a91906102df565b50806001908161009a91906102df565b5050506103ae565b5f81519050919050565b7f4e487b71000000000000000000000000000000000000000000000000000000005f52604160045260245ffd5b7f4e487b71000000000000000000000000000000000000000000000000000000005f52602260045260245ffd5b5f600282049050600182168061011d57607f821691505b6020821081036101305761012f6100d9565b5b50919050565b5f819050815f5260205f209050919050565b5f6020601f8301049050919050565b5f82821b905092915050565b5f600883026101927fffffffffffffffffffffffffffffffffffffffffffffffffffffffffffffffff82610157565b61019c8683610157565b95508019841693508086168417925050509392505050565b5f819050919050565b5f819050919050565b5f6101e06101db6101d6846101b4565b6101bd565b6101b4565b9050919050565b5f819050919050565b6101f9836101c6565b61020d610205826101e7565b848454610163565b825550505050565b5f5f905090565b610224610215565b61022f8184846101f0565b505050565b5b81811015610252576102475f8261021c565b600181019050610235565b5050565b601f8211156102975761026881610136565b61027184610148565b81016020851015610280578190505b61029461028c85610148565b830182610234565b50505b505050565b5f82821c905092915050565b5f6102b75f198460080261029c565b1980831691505092915050565b5f6102cf83836102a8565b9150826002028217905092915050565b6102e8826100a2565b67ffffffffffffffff811115610301576103006100ac565b5b61030b8254610106565b610316828285610256565b5f60209050601f831160018114610347575f8415610335578287015190505b61033f85826102c4565b8655506103a6565b601f19841661035586610136565b5f5b8281101561037c57848901518255600182019150602085019450602081019050610357565b868310156103995784890151610395601f8916826102a8565b8355505b6001600288020188555050505b505050505050565b611c4c806103bb5f395ff3fe608060405234801561000f575f5ffd5b50600436106100f3575f3560e01c80636a62784211610095578063b88d4fde11610064578063b88d4fde1461027f578063c87b56dd1461029b578063e985e9c5146102cb578063f851a440146102fb576100f3565b80636a627842146101f957806370a082311461021557806395d89b4114610245578063a22cb46514610263576100f3565b8063095ea7b3116100d1578063095ea7b31461017557806323b872dd1461019157806342842e0e146101ad5780636352211e146101c9576100f3565b806301ffc9a7146100f757806306fdde0314610127578063081812fc14610145575b5f5ffd5b610111600480360381019061010c91906114f7565b610319565b60405161011e919061153c565b60405180910390f35b61012f6103fa565b60405161013c91906115c5565b60405180910390f35b61015f600480360381019061015a9190611618565b610489565b60405161016c9190611682565b60405180910390f35b61018f600480360381019061018a91906116c5565b6104a4565b005b6101ab60048036038101906101a69190611703565b6104ba565b005b6101c760048036038101906101c29190611703565b6105b9565b005b6101e360048036038101906101de9190611618565b6105d8565b6040516101f09190611682565b60405180910390f35b610213600480360381019061020e9190611753565b6105e9565b005b61022f600480360381019061022a9190611753565b6105ec565b60405161023c919061178d565b60405180910390f35b61024d6106a2565b60405161025a91906115c5565b60405180910390f35b61027d600480360381019061027891906117d0565b610732565b005b6102996004803603810190610294919061193a565b610748565b005b6102b560048036038101906102b09190611618565b610765565b6040516102c291906115c5565b60405180910390f35b6102e560048036038101906102e091906119ba565b6107cb565b6040516102f2919061153c565b60405180910390f35b610303610859565b6040516103109190611682565b60405180910390f35b5f7f80ac58cd000000000000000000000000000000000000000000000000000000007bffffffffffffffffffffffffffffffffffffffffffffffffffffffff1916827bffffffffffffffffffffffffffffffffffffffffffffffffffffffff191614806103e357507f5b5e139f000000000000000000000000000000000000000000000000000000007bffffffffffffffffffffffffffffffffffffffffffffffffffffffff1916827bffffffffffffffffffffffffffffffffffffffffffffffffffffffff1916145b806103f357506103f28261087e565b5b9050919050565b60605f805461040890611a25565b80601f016020809104026020016040519081016040528092919081815260200182805461043490611a25565b801561047f5780601f106104565761010080835404028352916020019161047f565b820191905f5260205f20905b81548152906001019060200180831161046257829003601f168201915b5050505050905090565b5f610493826108e7565b5061049d8261096d565b9050919050565b6104b682826104b16109a6565b6109ad565b5050565b5f73ffffffffffffffffffffffffffffffffffffffff168273ffffffffffffffffffffffffffffffffffffffff160361052a575f6040517f64a0ae920000000000000000000000000000000000000000000000000000000081526004016105219190611682565b60405180910390fd5b5f61053d83836105386109a6565b6109bf565b90508373ffffffffffffffffffffffffffffffffffffffff168173ffffffffffffffffffffffffffffffffffffffff16146105b3578382826040517f64283d7b0000000000000000000000000000000000000000000000000000000081526004016105aa93929190611a55565b60405180910390fd5b50505050565b6105d383838360405180602001604052805f815250610748565b505050565b5f6105e2826108e7565b9050919050565b50565b5f5f73ffffffffffffffffffffffffffffffffffffffff168273ffffffffffffffffffffffffffffffffffffffff160361065d575f6040517f89c62b640000000000000000000000000000000000000000000000000000000081526004016106549190611682565b60405180910390fd5b60035f8373ffffffffffffffffffffffffffffffffffffffff1673ffffffffffffffffffffffffffffffffffffffff1681526020019081526020015f20549050919050565b6060600180546106b190611a25565b80601f01602080910402602001604051908101604052809291908181526020018280546106dd90611a25565b80156107285780601f106106ff57610100808354040283529160200191610728565b820191905f5260205f20905b81548152906001019060200180831161070b57829003601f168201915b5050505050905090565b61074461073d6109a6565b8383610bca565b5050565b6107538484846104ba565b61075f84848484610d33565b50505050565b6060610770826108e7565b505f61077a610ee5565b90505f8151116107985760405180602001604052805f8152506107c3565b806107a284610efb565b6040516020016107b3929190611ac4565b6040516020818303038152906040525b915050919050565b5f60055f8473ffffffffffffffffffffffffffffffffffffffff1673ffffffffffffffffffffffffffffffffffffffff1681526020019081526020015f205f8373ffffffffffffffffffffffffffffffffffffffff1673ffffffffffffffffffffffffffffffffffffffff1681526020019081526020015f205f9054906101000a900460ff16905092915050565b60075f9054906101000a900473ffffffffffffffffffffffffffffffffffffffff1681565b5f7f01ffc9a7000000000000000000000000000000000000000000000000000000007bffffffffffffffffffffffffffffffffffffffffffffffffffffffff1916827bffffffffffffffffffffffffffffffffffffffffffffffffffffffff1916149050919050565b5f5f6108f283610fc5565b90505f73ffffffffffffffffffffffffffffffffffffffff168173ffffffffffffffffffffffffffffffffffffffff160361096457826040517f7e27328900000000000000000000000000000000000000000000000000000000815260040161095b919061178d565b60405180910390fd5b80915050919050565b5f60045f8381526020019081526020015f205f9054906101000a900473ffffffffffffffffffffffffffffffffffffffff169050919050565b5f33905090565b6109ba8383836001610ffe565b505050565b5f5f6109ca84610fc5565b90505f73ffffffffffffffffffffffffffffffffffffffff168373ffffffffffffffffffffffffffffffffffffffff1614610a0b57610a0a8184866111bd565b5b5f73ffffffffffffffffffffffffffffffffffffffff168173ffffffffffffffffffffffffffffffffffffffff1614610a9657610a4a5f855f5f610ffe565b600160035f8373ffffffffffffffffffffffffffffffffffffffff1673ffffffffffffffffffffffffffffffffffffffff1681526020019081526020015f205f82825403925050819055505b5f73ffffffffffffffffffffffffffffffffffffffff168573ffffffffffffffffffffffffffffffffffffffff1614610b1557600160035f8773ffffffffffffffffffffffffffffffffffffffff1673ffffffffffffffffffffffffffffffffffffffff1681526020019081526020015f205f82825401925050819055505b8460025f8681526020019081526020015f205f6101000a81548173ffffffffffffffffffffffffffffffffffffffff021916908373ffffffffffffffffffffffffffffffffffffffff160217905550838573ffffffffffffffffffffffffffffffffffffffff168273ffffffffffffffffffffffffffffffffffffffff167fddf252ad1be2c89b69c2b068fc378daa952ba7f163c4a11628f55a4df523b3ef60405160405180910390a4809150509392505050565b5f73ffffffffffffffffffffffffffffffffffffffff168273ffffffffffffffffffffffffffffffffffffffff1603610c3a57816040517f5b08ba18000000000000000000000000000000000000000000000000000000008152600401610c319190611682565b60405180910390fd5b8060055f8573ffffffffffffffffffffffffffffffffffffffff1673ffffffffffffffffffffffffffffffffffffffff1681526020019081526020015f205f8473ffffffffffffffffffffffffffffffffffffffff1673ffffffffffffffffffffffffffffffffffffffff1681526020019081526020015f205f6101000a81548160ff0219169083151502179055508173ffffffffffffffffffffffffffffffffffffffff168373ffffffffffffffffffffffffffffffffffffffff167f17307eab39ab6107e8899845ad3d59bd9653f200f220920489ca2b5937696c3183604051610d26919061153c565b60405180910390a3505050565b5f8373ffffffffffffffffffffffffffffffffffffffff163b1115610edf578273ffffffffffffffffffffffffffffffffffffffff1663150b7a02610d766109a6565b8685856040518563ffffffff1660e01b8152600401610d989493929190611b39565b6020604051808303815f875af1925050508015610dd357506040513d601f19601f82011682018060405250810190610dd09190611b97565b60015b610e54573d805f8114610e01576040519150601f19603f3d011682016040523d82523d5f602084013e610e06565b606091505b505f815103610e4c57836040517f64a0ae92000000000000000000000000000000000000000000000000000000008152600401610e439190611682565b60405180910390fd5b805181602001fd5b63150b7a0260e01b7bffffffffffffffffffffffffffffffffffffffffffffffffffffffff1916817bffffffffffffffffffffffffffffffffffffffffffffffffffffffff191614610edd57836040517f64a0ae92000000000000000000000000000000000000000000000000000000008152600401610ed49190611682565b60405180910390fd5b505b50505050565b606060405180602001604052805f815250905090565b60605f6001610f0984611280565b0190505f8167ffffffffffffffff811115610f2757610f26611816565b5b6040519080825280601f01601f191660200182016040528015610f595781602001600182028036833780820191505090505b5090505f82602001820190505b600115610fba578080600190039150507f3031323334353637383961626364656600000000000000000000000000000000600a86061a8153600a8581610faf57610fae611bc2565b5b0494505f8503610f66575b819350505050919050565b5f60025f8381526020019081526020015f205f9054906101000a900473ffffffffffffffffffffffffffffffffffffffff169050919050565b808061103657505f73ffffffffffffffffffffffffffffffffffffffff168273ffffffffffffffffffffffffffffffffffffffff1614155b15611168575f611045846108e7565b90505f73ffffffffffffffffffffffffffffffffffffffff168373ffffffffffffffffffffffffffffffffffffffff16141580156110af57508273ffffffffffffffffffffffffffffffffffffffff168173ffffffffffffffffffffffffffffffffffffffff1614155b80156110c257506110c081846107cb565b155b1561110457826040517fa9fbf51f0000000000000000000000000000000000000000000000000000000081526004016110fb9190611682565b60405180910390fd5b811561116657838573ffffffffffffffffffffffffffffffffffffffff168273ffffffffffffffffffffffffffffffffffffffff167f8c5be1e5ebec7d5bd14f71427d1e84f3dd0314c0f7b2291e5b200ac8c7c3b92560405160405180910390a45b505b8360045f8581526020019081526020015f205f6101000a81548173ffffffffffffffffffffffffffffffffffffffff021916908373ffffffffffffffffffffffffffffffffffffffff16021790555050505050565b6111c88383836113d1565b61127b575f73ffffffffffffffffffffffffffffffffffffffff168373ffffffffffffffffffffffffffffffffffffffff160361123c57806040517f7e273289000000000000000000000000000000000000000000000000000000008152600401611233919061178d565b60405180910390fd5b81816040517f177e802f000000000000000000000000000000000000000000000000000000008152600401611272929190611bef565b60405180910390fd5b505050565b5f5f5f90507a184f03e93ff9f4daa797ed6e38ed64bf6a1f01000000000000000083106112dc577a184f03e93ff9f4daa797ed6e38ed64bf6a1f01000000000000000083816112d2576112d1611bc2565b5b0492506040810190505b6d04ee2d6d415b85acef81000000008310611319576d04ee2d6d415b85acef8100000000838161130f5761130e611bc2565b5b0492506020810190505b662386f26fc10000831061134857662386f26fc10000838161133e5761133d611bc2565b5b0492506010810190505b6305f5e1008310611371576305f5e100838161136757611366611bc2565b5b0492506008810190505b612710831061139657612710838161138c5761138b611bc2565b5b0492506004810190505b606483106113b957606483816113af576113ae611bc2565b5b0492506002810190505b600a83106113c8576001810190505b80915050919050565b5f5f73ffffffffffffffffffffffffffffffffffffffff168373ffffffffffffffffffffffffffffffffffffffff161415801561148857508273ffffffffffffffffffffffffffffffffffffffff168473ffffffffffffffffffffffffffffffffffffffff161480611449575061144884846107cb565b5b8061148757508273ffffffffffffffffffffffffffffffffffffffff1661146f8361096d565b73ffffffffffffffffffffffffffffffffffffffff16145b5b90509392505050565b5f604051905090565b5f5ffd5b5f5ffd5b5f7fffffffff0000000000000000000000000000000000000000000000000000000082169050919050565b6114d6816114a2565b81146114e0575f5ffd5b50565b5f813590506114f1816114cd565b92915050565b5f6020828403121561150c5761150b61149a565b5b5f611519848285016114e3565b91505092915050565b5f8115159050919050565b61153681611522565b82525050565b5f60208201905061154f5f83018461152d565b92915050565b5f81519050919050565b5f82825260208201905092915050565b8281835e5f83830152505050565b5f601f19601f8301169050919050565b5f61159782611555565b6115a1818561155f565b93506115b181856020860161156f565b6115ba8161157d565b840191505092915050565b5f6020820190508181035f8301526115dd818461158d565b905092915050565b5f819050919050565b6115f7816115e5565b8114611601575f5ffd5b50565b5f81359050611612816115ee565b92915050565b5f6020828403121561162d5761162c61149a565b5b5f61163a84828501611604565b91505092915050565b5f73ffffffffffffffffffffffffffffffffffffffff82169050919050565b5f61166c82611643565b9050919050565b61167c81611662565b82525050565b5f6020820190506116955f830184611673565b92915050565b6116a481611662565b81146116ae575f5ffd5b50565b5f813590506116bf8161169b565b92915050565b5f5f604083850312156116db576116da61149a565b5b5f6116e8858286016116b1565b92505060206116f985828601611604565b9150509250929050565b5f5f5f6060848603121561171a5761171961149a565b5b5f611727868287016116b1565b9350506020611738868287016116b1565b925050604061174986828701611604565b9150509250925092565b5f602082840312156117685761176761149a565b5b5f611775848285016116b1565b91505092915050565b611787816115e5565b82525050565b5f6020820190506117a05f83018461177e565b92915050565b6117af81611522565b81146117b9575f5ffd5b50565b5f813590506117ca816117a6565b92915050565b5f5f604083850312156117e6576117e561149a565b5b5f6117f3858286016116b1565b9250506020611804858286016117bc565b9150509250929050565b5f5ffd5b5f5ffd5b7f4e487b71000000000000000000000000000000000000000000000000000000005f52604160045260245ffd5b61184c8261157d565b810181811067ffffffffffffffff8211171561186b5761186a611816565b5b80604052505050565b5f61187d611491565b90506118898282611843565b919050565b5f67ffffffffffffffff8211156118a8576118a7611816565b5b6118b18261157d565b9050602081019050919050565b828183375f83830152505050565b5f6118de6118d98461188e565b611874565b9050828152602081018484840111156118fa576118f9611812565b5b6119058482856118be565b509392505050565b5f82601f8301126119215761192061180e565b5b81356119318482602086016118cc565b91505092915050565b5f5f5f5f608085870312156119525761195161149a565b5b5f61195f878288016116b1565b9450506020611970878288016116b1565b935050604061198187828801611604565b925050606085013567ffffffffffffffff8111156119a2576119a161149e565b5b6119ae8782880161190d565b91505092959194509250565b5f5f604083850312156119d0576119cf61149a565b5b5f6119dd858286016116b1565b92505060206119ee858286016116b1565b9150509250929050565b7f4e487b71000000000000000000000000000000000000000000000000000000005f52602260045260245ffd5b5f6002820490506001821680611a3c57607f821691505b602082108103611a4f57611a4e6119f8565b5b50919050565b5f606082019050611a685f830186611673565b611a75602083018561177e565b611a826040830184611673565b949350505050565b5f81905092915050565b5f611a9e82611555565b611aa88185611a8a565b9350611ab881856020860161156f565b80840191505092915050565b5f611acf8285611a94565b9150611adb8284611a94565b91508190509392505050565b5f81519050919050565b5f82825260208201905092915050565b5f611b0b82611ae7565b611b158185611af1565b9350611b2581856020860161156f565b611b2e8161157d565b840191505092915050565b5f608082019050611b4c5f830187611673565b611b596020830186611673565b611b66604083018561177e565b8181036060830152611b788184611b01565b905095945050505050565b5f81519050611b91816114cd565b92915050565b5f60208284031215611bac57611bab61149a565b5b5f611bb984828501611b83565b91505092915050565b7f4e487b71000000000000000000000000000000000000000000000000000000005f52601260045260245ffd5b5f604082019050611c025f830185611673565b611c0f602083018461177e565b939250505056fea2646970667358221220529043e9bfd3c1ad2e7879277d443549ff29a8376d69bf90f116428e71c01e3c64736f6c634300081c0033","linkReferences":{}},"methodIdentifiers":{"admin()":"f851a440","approve(address,uint256)":"095ea7b3","balanceOf(address)":"70a08231","getApproved(uint256)":"081812fc","isApprovedForAll(address,address)":"e985e9c5","mint(address)":"6a627842","name()":"06fdde03","ownerOf(uint256)":"6352211e","safeTransferFrom(address,address,uint256)":"42842e0e","safeTransferFrom(address,address,uint256,bytes)":"b88d4fde","setApprovalForAll(address,bool)":"a22cb465","supportsInterface(bytes4)":"01ffc9a7","symbol()":"95d89b41","tokenURI(uint256)":"c87b56dd","transferFrom(address,address,uint256)":"23b872dd"},"id":45}