{"abi":[{"type":"function","name":"addData","inputs":[{"name":"_data","type":"uint256","internalType":"uint256"}],"outputs":[],"stateMutability":"nonpayable"},{"type":"function","name":"getData","inputs":[{"name":"index","type":"uint256","internalType":"uint256"}],"outputs":[{"name":"","type":"uint256","internalType":"uint256"}],"stateMutability":"view"},{"type":"function","name":"removeData","inputs":[{"name":"index","type":"uint256","internalType":"uint256"}],"outputs":[],"stateMutability":"nonpayable"},{"type":"event","name":"DataAdded","inputs":[{"name":"data","type":"uint256","indexed":true,"internalType":"uint256"},{"name":"addedBy","type":"address","indexed":true,"internalType":"address"}],"anonymous":false},{"type":"event","name":"DataRemoved","inputs":[{"name":"data","type":"uint256","indexed":true,"internalType":"uint256"},{"name":"removedBy","type":"address","indexed":true,"internalType":"address"}],"anonymous":false}],"bytecode":{"object":"0x6080604052348015600e575f5ffd5b506103938061001c5f395ff3fe608060405234801561000f575f5ffd5b506004361061003f575f3560e01c80630178fe3f14610043578063a94840bb14610073578063e5d824a71461008f575b5f5ffd5b61005d60048036038101906100589190610265565b6100ab565b60405161006a919061029f565b60405180910390f35b61008d60048036038101906100889190610265565b610115565b005b6100a960048036038101906100a49190610265565b6101c2565b005b5f5f8054905082106100f2576040517f08c379a00000000000000000000000000000000000000000000000000000000081526004016100e990610312565b60405180910390fd5b5f828154811061010557610104610330565b5b905f5260205f2001549050919050565b5f80549050811061015b576040517f08c379a000000000000000000000000000000000000000000000000000000000815260040161015290610312565b60405180910390fd5b5f5f828154811061016f5761016e610330565b5b905f5260205f20015490503373ffffffffffffffffffffffffffffffffffffffff16817f24a8c956da4c350335844804a6afc286a41fe72d7c2e622753c3c4ce7578f80160405160405180910390a35050565b5f81908060018154018082558091505060019003905f5260205f20015f90919091909150553373ffffffffffffffffffffffffffffffffffffffff16817f82b592fada6dcac03266e40654e46dd863694b963f89fdb25267910b38f6ae4360405160405180910390a350565b5f5ffd5b5f819050919050565b61024481610232565b811461024e575f5ffd5b50565b5f8135905061025f8161023b565b92915050565b5f6020828403121561027a5761027961022e565b5b5f61028784828501610251565b91505092915050565b61029981610232565b82525050565b5f6020820190506102b25f830184610290565b92915050565b5f82825260208201905092915050565b7f496e646578206f7574206f6620626f756e6473000000000000000000000000005f82015250565b5f6102fc6013836102b8565b9150610307826102c8565b602082019050919050565b5f6020820190508181035f830152610329816102f0565b9050919050565b7f4e487b71000000000000000000000000000000000000000000000000000000005f52603260045260245ffdfea2646970667358221220034e6ed450690350a76ed2082c7f0a6f4c019f15607fcf58d1581010c1a4294d64736f6c634300081c0033","linkReferences":{}},"methodIdentifiers":{"addData(uint256)":"e5d824a7","getData(uint256)":"0178fe3f","removeData(uint256)":"a94840bb"},"id":20}