{"abi":[{"type":"constructor","inputs":[],"stateMutability":"nonpayable"},{"type":"function","name":"bets","inputs":[{"name":"","type":"address","internalType":"address"}],"outputs":[{"name":"amount","type":"uint256","internalType":"uint256"},{"name":"prediction","type":"uint8","internalType":"enum CryptoBetting.Prediction"},{"name":"claimed","type":"bool","internalType":"bool"},{"name":"entryPrice","type":"int256","internalType":"int256"}],"stateMutability":"view"},{"type":"function","name":"bettors","inputs":[{"name":"","type":"uint256","internalType":"uint256"}],"outputs":[{"name":"","type":"address","internalType":"address"}],"stateMutability":"view"},{"type":"function","name":"commissionRate","inputs":[],"outputs":[{"name":"","type":"uint256","internalType":"uint256"}],"stateMutability":"view"},{"type":"function","name":"getLatestPrice","inputs":[],"outputs":[{"name":"","type":"int256","internalType":"int256"}],"stateMutability":"view"},{"type":"function","name":"owner","inputs":[],"outputs":[{"name":"","type":"address","internalType":"address"}],"stateMutability":"view"},{"type":"function","name":"placeBet","inputs":[{"name":"_prediction","type":"uint8","internalType":"enum CryptoBetting.Prediction"}],"outputs":[],"stateMutability":"payable"},{"type":"function","name":"resolveBet","inputs":[],"outputs":[],"stateMutability":"nonpayable"},{"type":"function","name":"totalBetAmount","inputs":[],"outputs":[{"name":"","type":"uint256","internalType":"uint256"}],"stateMutability":"view"},{"type":"function","name":"totalFallBets","inputs":[],"outputs":[{"name":"","type":"uint256","internalType":"uint256"}],"stateMutability":"view"},{"type":"function","name":"totalRiseBets","inputs":[],"outputs":[{"name":"","type":"uint256","internalType":"uint256"}],"stateMutability":"view"},{"type":"function","name":"withdrawCommission","inputs":[],"outputs":[],"stateMutability":"nonpayable"}],"bytecode":{"object":"0x60806040523461002757610011610116565b61001961002c565b6115d861012f82396115d890f35b610032565b60405190565b5f80fd5b5f1b90565b906100475f1991610036565b9181191691161790565b90565b90565b90565b61006e61006961007392610051565b610057565b610054565b90565b90565b9061008e6100896100959261005a565b610076565b825461003b565b9055565b906100aa60018060a01b0391610036565b9181191691161790565b60018060a01b031690565b6100d36100ce6100d8926100b4565b610057565b6100b4565b90565b6100e4906100bf565b90565b6100f0906100db565b90565b90565b9061010b610106610112926100e7565b6100f3565b8254610099565b9055565b61012260056001610079565b61012c335f6100f6565b56fe60806040526004361015610013575b61074f565b61001d5f356100cc565b80633482b644146100c75780633e25e837146100c257806343046844146100bd5780635e63ee57146100b85780635ea1d6f8146100b3578063613f4594146100ae57806389a78f1a146100a95780638da5cb5b146100a45780638e15f4731461009f5780638fced6261461009a5763cd536db00361000e5761071a565b6106d8565b6106a3565b610659565b610612565b6103c9565b610385565b610341565b6102be565b610250565b610207565b60e01c90565b60405190565b5f80fd5b5f80fd5b90565b6100ec816100e0565b036100f357565b5f80fd5b90503590610104826100e3565b565b9060208282031261011f5761011c915f016100f7565b90565b6100dc565b634e487b7160e01b5f52603260045260245ffd5b5490565b5f5260205f2090565b61014e81610138565b8210156101685761016060019161013c565b910201905f90565b610124565b1c90565b60018060a01b031690565b61018c906008610191930261016d565b610171565b90565b9061019f915461017c565b90565b60026101ad81610138565b8210156101ca576101c7916101c191610145565b90610194565b90565b5f80fd5b60018060a01b031690565b6101e2906101ce565b90565b6101ee906101d9565b9052565b9190610205905f602085019401906101e5565b565b346102375761023361022261021d366004610106565b6101a2565b61022a6100d2565b918291826101f2565b0390f35b6100d8565b5f91031261024657565b6100dc565b5f0190565b3461027e5761026036600461023c565b610268610aa6565b6102706100d2565b8061027a8161024b565b0390f35b6100d8565b6002111561028d57565b5f80fd5b9050359061029e82610283565b565b906020828203126102b9576102b6915f01610291565b90565b6100dc565b6102d16102cc3660046102a0565b610f45565b6102d96100d2565b806102e38161024b565b0390f35b90565b6102fa9060086102ff930261016d565b6102e7565b90565b9061030d91546102ea565b90565b61031c60065f90610302565b90565b610328906100e0565b9052565b919061033f905f6020850194019061031f565b565b346103715761035136600461023c565b61036d61035c610310565b6103646100d2565b9182918261032c565b0390f35b6100d8565b61038260015f90610302565b90565b346103b55761039536600461023c565b6103b16103a0610376565b6103a86100d2565b9182918261032c565b0390f35b6100d8565b6103c660045f90610302565b90565b346103f9576103d936600461023c565b6103f56103e46103ba565b6103ec6100d2565b9182918261032c565b0390f35b6100d8565b610407816101d9565b0361040e57565b5f80fd5b9050359061041f826103fe565b565b9060208282031261043a57610437915f01610412565b90565b6100dc565b90565b61045661045161045b926101ce565b61043f565b6101ce565b90565b61046790610442565b90565b6104739061045e565b90565b906104809061046a565b5f5260205260405f2090565b5f1c90565b61049d6104a29161048c565b6102e7565b90565b6104af9054610491565b90565b60ff1690565b6104c46104c99161048c565b6104b2565b90565b6104d690546104b8565b90565b60081c90565b60ff1690565b6104f16104f6916104d9565b6104df565b90565b61050390546104e5565b90565b90565b61051561051a9161048c565b610506565b90565b6105279054610509565b90565b610535906003610476565b906105415f83016104a5565b9161054e600182016104cc565b916105676002610560600185016104f9565b930161051d565b90565b634e487b7160e01b5f52602160045260245ffd5b6002111561058857565b61056a565b906105978261057e565b565b6105a29061058d565b90565b6105ae90610599565b9052565b151590565b6105c0906105b2565b9052565b90565b6105d0906105c4565b9052565b610609610610946105ff6060949897956105f5608086019a5f87019061031f565b60208501906105a5565b60408301906105b7565b01906105c7565b565b346106465761064261062d610628366004610421565b61052a565b906106399492946100d2565b948594856105d4565b0390f35b6100d8565b6106565f5f90610194565b90565b346106895761066936600461023c565b61068561067461064b565b61067c6100d2565b918291826101f2565b0390f35b6100d8565b91906106a1905f602085019401906105c7565b565b346106d3576106b336600461023c565b6106cf6106be611191565b6106c66100d2565b9182918261068e565b0390f35b6100d8565b34610706576106e836600461023c565b6106f06113aa565b6106f86100d2565b806107028161024b565b0390f35b6100d8565b61071760055f90610302565b90565b3461074a5761072a36600461023c565b61074661073561070b565b61073d6100d2565b9182918261032c565b0390f35b6100d8565b5f80fd5b61075f6107649161048c565b610171565b90565b6107719054610753565b90565b60209181520190565b5f7f4f6e6c79206f776e65722063616e207769746864726177000000000000000000910152565b6107b16017602092610774565b6107ba8161077d565b0190565b6107d39060208101905f8183039101526107a4565b90565b156107dd57565b6107e56100d2565b62461bcd60e51b8152806107fb600482016107be565b0390fd5b634e487b7160e01b5f52601160045260245ffd5b610822610828919392936100e0565b926100e0565b916108348382026100e0565b92818404149015171561084357565b6107ff565b90565b61085f61085a61086492610848565b61043f565b6100e0565b90565b634e487b7160e01b5f52601260045260245ffd5b61088761088d916100e0565b916100e0565b908115610898570490565b610867565b6108ac6108b2919392936100e0565b926100e0565b82039182116108bd57565b6107ff565b5f1b90565b906108d35f19916108c2565b9181191691161790565b6108f16108ec6108f6926100e0565b61043f565b6100e0565b90565b90565b9061091161090c610918926108dd565b6108f9565b82546108c7565b9055565b61092590610442565b90565b6109319061091c565b90565b61093d9061045e565b90565b905090565b6109505f8092610940565b0190565b61095d90610945565b90565b601f801991011690565b634e487b7160e01b5f52604160045260245ffd5b9061098890610960565b810190811067ffffffffffffffff8211176109a257604052565b61096a565b906109ba6109b36100d2565b928361097e565b565b67ffffffffffffffff81116109da576109d6602091610960565b0190565b61096a565b906109f16109ec836109bc565b6109a7565b918252565b606090565b3d5f14610a1657610a0b3d6109df565b903d5f602084013e5b565b610a1e6109f6565b90610a14565b5f7f5472616e73666572206661696c65640000000000000000000000000000000000910152565b610a58600f602092610774565b610a6181610a24565b0190565b610a7a9060208101905f818303910152610a4b565b90565b15610a8457565b610a8c6100d2565b62461bcd60e51b815280610aa260048201610a65565b0390fd5b610aca33610ac4610abe610ab95f610767565b6101d9565b916101d9565b146107d6565b610b5b5f80610aff610aef610adf60046104a5565b610ae960016104a5565b90610813565b610af9606461084b565b9061087b565b610b1c610b1582610b1060046104a5565b61089d565b60046108fc565b610b35610b30610b2b84610767565b610928565b610934565b90610b3e6100d2565b9081610b4981610954565b03925af1610b556109fb565b50610a7d565b565b90565b610b74610b6f610b7992610b5d565b61043f565b6100e0565b90565b60207f3000000000000000000000000000000000000000000000000000000000000000917f42657420616d6f756e74206d7573742062652067726561746572207468616e205f8201520152565b610bd66021604092610774565b610bdf81610b7c565b0190565b610bf89060208101905f818303910152610bc9565b90565b15610c0257565b610c0a6100d2565b62461bcd60e51b815280610c2060048201610be3565b0390fd5b5f7f416c726561647920706c61636564206120626574000000000000000000000000910152565b610c586014602092610774565b610c6181610c24565b0190565b610c7a9060208101905f818303910152610c4b565b90565b15610c8457565b610c8c6100d2565b62461bcd60e51b815280610ca260048201610c65565b0390fd5b610cb060806109a7565b90565b90610cbd906100e0565b9052565b90610ccb9061058d565b9052565b90610cd9906105b2565b9052565b90610ce7906105c4565b9052565b610cf590516100e0565b90565b610d02905161058d565b90565b90610d1160ff916108c2565b9181191691161790565b610d249061058d565b90565b90565b90610d3f610d3a610d4692610d1b565b610d27565b8254610d05565b9055565b610d5490516105b2565b90565b60081b90565b90610d6a61ff0091610d57565b9181191691161790565b610d7d906105b2565b90565b90565b90610d98610d93610d9f92610d74565b610d80565b8254610d5d565b9055565b610dad90516105c4565b90565b610dc4610dbf610dc9926105c4565b61043f565b6105c4565b90565b90565b90610de4610ddf610deb92610db0565b610dcc565b82546108c7565b9055565b90610e4c60606002610e5294610e125f8201610e0c5f8801610ceb565b906108fc565b610e2b60018201610e2560208801610cf8565b90610d2a565b610e4460018201610e3e60408801610d4a565b90610d83565b019201610da3565b90610dcf565b565b90610e5e91610def565b565b90565b5f5260205f2090565b5490565b610e7981610e6c565b821015610e9357610e8b600191610e63565b910201905f90565b610124565b1b90565b91906008610ebc910291610eb660018060a01b0384610e98565b92610e98565b9181191691161790565b90565b9190610edf610eda610ee79361046a565b610ec6565b908354610e9c565b9055565b9081549168010000000000000000831015610f1b5782610f13916001610f1995018155610e70565b90610ec9565b565b61096a565b610f2f610f35919392936100e0565b926100e0565b8201809211610f4057565b6107ff565b610f6134610f5b610f555f610b60565b916100e0565b11610bfb565b610f92610f7a5f610f7460033390610476565b016104a5565b610f8c610f865f610b60565b916100e0565b14610c7d565b610fed610f9d611191565b610fdc3491610fd38591610fca5f9193610fc1610fb8610ca6565b975f8901610cb3565b60208701610cc1565b60408501610ccf565b60608301610cdd565b610fe860033390610476565b610e54565b611001610ffa6002610e60565b3390610eeb565b61101e6110173461101260046104a5565b610f20565b60046108fc565b61103061102a5f61058d565b9161058d565b145f146110575761105461104d3461104860056104a5565b610f20565b60056108fc565b5b565b61107461106d3461106860066104a5565b610f20565b60066108fc565b611055565b5f90565b61108690610442565b90565b6110929061107d565b90565b6110b273e7656e23fe8077d438aefbec2fabdf2d8e070c4f611089565b90565b6110be9061045e565b90565b60e01b90565b69ffffffffffffffffffff1690565b6110df816110c7565b036110e657565b5f80fd5b905051906110f7826110d6565b565b611102816105c4565b0361110957565b5f80fd5b9050519061111a826110f9565b565b90505190611129826100e3565b565b919060a08382031261117c57611143815f85016110ea565b92611151826020830161110d565b92611179611162846040850161111c565b93611170816060860161111c565b936080016110ea565b90565b6100dc565b6111896100d2565b3d5f823e3d90fd5b611199611079565b506111c560a06111af6111aa611095565b6110b5565b63feaf968c906111bd6100d2565b9384926110c1565b825281806111d56004820161024b565b03915afa90811561121f575f809290506111ee575b5090565b61120f915060a03d8111611218575b611207818361097e565b81019061112b565b505050906111ea565b503d6111fd565b611181565b5f7f4e6f2062657420706c6163656400000000000000000000000000000000000000910152565b611258600d602092610774565b61126181611224565b0190565b61127a9060208101905f81830391015261124b565b90565b1561128457565b61128c6100d2565b62461bcd60e51b8152806112a260048201611265565b0390fd5b5f7f416c726561647920636c61696d65640000000000000000000000000000000000910152565b6112da600f602092610774565b6112e3816112a6565b0190565b6112fc9060208101905f8183039101526112cd565b90565b1561130657565b61130e6100d2565b62461bcd60e51b815280611324600482016112e7565b0390fd5b5f7f4e6f2077696e6e6572732c206e6f207061796f75740000000000000000000000910152565b61135c6015602092610774565b61136581611328565b0190565b61137e9060208101905f81830391015261134f565b90565b1561138857565b6113906100d2565b62461bcd60e51b8152806113a660048201611369565b0390fd5b6113db6113c35f6113bd60033390610476565b016104a5565b6113d56113cf5f610b60565b916100e0565b1161127d565b6114036113fe6113f860016113f260033390610476565b016104f9565b156105b2565b6112ff565b61140b611191565b61143361142d611428600261142260033390610476565b0161051d565b6105c4565b916105c4565b135f1461159b575f5b8061144f6114495f61058d565b9161058d565b145f1461158c5761146060056104a5565b5b61147561146e60046104a5565b829061089d565b916114928261148c6114865f610b60565b916100e0565b11611381565b6114bb6114b56114af60016114a960033390610476565b016104cc565b9261058d565b9161058d565b146114dd575b50506114db6001806114d560033390610476565b01610d83565b565b5f61154e6115859361154861153861151585966115106115098861150360033390610476565b016104a5565b9586610813565b61087b565b611532606461152d61152760016104a5565b9161084b565b61089d565b90610813565b611542606461084b565b9061087b565b90610f20565b61155f61155a33610928565b610934565b906115686100d2565b908161157381610954565b03925af161157f6109fb565b50610a7d565b5f806114c1565b61159660066104a5565b611461565b600161143c56fea264697066735822122074fea7d7b5eedf90477ed76ca4c3688e3c27f21c552743d573a2ef65f8efcca464736f6c634300081c0033","linkReferences":{}},"methodIdentifiers":{"bets(address)":"89a78f1a","bettors(uint256)":"3482b644","commissionRate()":"5ea1d6f8","getLatestPrice()":"8e15f473","owner()":"8da5cb5b","placeBet(uint8)":"43046844","resolveBet()":"8fced626","totalBetAmount()":"613f4594","totalFallBets()":"5e63ee57","totalRiseBets()":"cd536db0","withdrawCommission()":"3e25e837"},"id":19}