{"abi":[{"type":"constructor","inputs":[{"name":"_priceFeed","type":"address","internalType":"address"}],"stateMutability":"nonpayable"},{"type":"function","name":"bets","inputs":[{"name":"","type":"address","internalType":"address"}],"outputs":[{"name":"amount","type":"uint256","internalType":"uint256"},{"name":"prediction","type":"uint8","internalType":"enum CryptoBetting.Prediction"},{"name":"claimed","type":"bool","internalType":"bool"},{"name":"entryPrice","type":"int256","internalType":"int256"}],"stateMutability":"view"},{"type":"function","name":"bettors","inputs":[{"name":"","type":"uint256","internalType":"uint256"}],"outputs":[{"name":"","type":"address","internalType":"address"}],"stateMutability":"view"},{"type":"function","name":"commissionRate","inputs":[],"outputs":[{"name":"","type":"uint256","internalType":"uint256"}],"stateMutability":"view"},{"type":"function","name":"getLatestPrice","inputs":[],"outputs":[{"name":"","type":"int256","internalType":"int256"}],"stateMutability":"view"},{"type":"function","name":"owner","inputs":[],"outputs":[{"name":"","type":"address","internalType":"address"}],"stateMutability":"view"},{"type":"function","name":"placeBet","inputs":[{"name":"_prediction","type":"uint8","internalType":"enum CryptoBetting.Prediction"}],"outputs":[],"stateMutability":"payable"},{"type":"function","name":"priceFeed","inputs":[],"outputs":[{"name":"","type":"address","internalType":"contract AggregatorV3Interface"}],"stateMutability":"view"},{"type":"function","name":"resolveBet","inputs":[],"outputs":[],"stateMutability":"nonpayable"},{"type":"function","name":"setCommissionRate","inputs":[{"name":"_commissionRate","type":"uint256","internalType":"uint256"}],"outputs":[],"stateMutability":"nonpayable"},{"type":"function","name":"totalBetAmount","inputs":[],"outputs":[{"name":"","type":"uint256","internalType":"uint256"}],"stateMutability":"view"},{"type":"function","name":"totalFallBets","inputs":[],"outputs":[{"name":"","type":"uint256","internalType":"uint256"}],"stateMutability":"view"},{"type":"function","name":"totalRiseBets","inputs":[],"outputs":[{"name":"","type":"uint256","internalType":"uint256"}],"stateMutability":"view"},{"type":"function","name":"withdrawCommission","inputs":[],"outputs":[],"stateMutability":"nonpayable"}],"bytecode":{"object":"0x60806040523461002f576100196100146100f4565b610231565b610021610034565b61182861025d823961182890f35b61003a565b60405190565b5f80fd5b601f801991011690565b634e487b7160e01b5f52604160045260245ffd5b906100669061003e565b810190811060018060401b0382111761007e57604052565b610048565b9061009661008f610034565b928361005c565b565b5f80fd5b60018060a01b031690565b6100b09061009c565b90565b6100bc816100a7565b036100c357565b5f80fd5b905051906100d4826100b3565b565b906020828203126100ef576100ec915f016100c7565b90565b610098565b610112611a858038038061010781610083565b9283398101906100d6565b90565b5f1b90565b906101265f1991610115565b9181191691161790565b90565b90565b90565b61014d61014861015292610130565b610136565b610133565b90565b90565b9061016d61016861017492610139565b610155565b825461011a565b9055565b9061018960018060a01b0391610115565b9181191691161790565b6101a76101a26101ac9261009c565b610136565b61009c565b90565b6101b890610193565b90565b6101c4906101af565b90565b90565b906101df6101da6101e6926101bb565b6101c7565b8254610178565b9055565b6101f390610193565b90565b6101ff906101ea565b90565b61020b906101ea565b90565b90565b9061022661022161022d92610202565b61020e565b8254610178565b9055565b61025461025a9161024460056002610158565b61024f3360016101ca565b6101f6565b5f610211565b56fe60806040526004361015610013575b610845565b61001d5f356100ec565b806319fac8fd146100e75780633482b644146100e25780633e25e837146100dd57806343046844146100d85780635e63ee57146100d35780635ea1d6f8146100ce578063613f4594146100c9578063741bef1a146100c457806389a78f1a146100bf5780638da5cb5b146100ba5780638e15f473146100b55780638fced626146100b05763cd536db00361000e57610810565b6107ce565b610799565b61074f565b610707565b6104e9565b61041c565b6103d8565b610394565b610311565b6102a3565b61025f565b610149565b60e01c90565b60405190565b5f80fd5b5f80fd5b90565b61010c81610100565b0361011357565b5f80fd5b9050359061012482610103565b565b9060208282031261013f5761013c915f01610117565b90565b6100fc565b5f0190565b346101775761016161015c366004610126565b610a16565b6101696100f2565b8061017381610144565b0390f35b6100f8565b634e487b7160e01b5f52603260045260245ffd5b5490565b5f5260205f2090565b6101a681610190565b8210156101c0576101b8600191610194565b910201905f90565b61017c565b1c90565b60018060a01b031690565b6101e49060086101e993026101c5565b6101c9565b90565b906101f791546101d4565b90565b600361020581610190565b8210156102225761021f916102199161019d565b906101ec565b90565b5f80fd5b60018060a01b031690565b61023a90610226565b90565b61024690610231565b9052565b919061025d905f6020850194019061023d565b565b3461028f5761028b61027a610275366004610126565b6101fa565b6102826100f2565b9182918261024a565b0390f35b6100f8565b5f91031261029e57565b6100fc565b346102d1576102b3366004610294565b6102bb610d16565b6102c36100f2565b806102cd81610144565b0390f35b6100f8565b600211156102e057565b5f80fd5b905035906102f1826102d6565b565b9060208282031261030c57610309915f016102e4565b90565b6100fc565b61032461031f3660046102f3565b6111b7565b61032c6100f2565b8061033681610144565b0390f35b90565b61034d90600861035293026101c5565b61033a565b90565b90610360915461033d565b90565b61036f60075f90610355565b90565b61037b90610100565b9052565b9190610392905f60208501940190610372565b565b346103c4576103a4366004610294565b6103c06103af610363565b6103b76100f2565b9182918261037f565b0390f35b6100f8565b6103d560025f90610355565b90565b34610408576103e8366004610294565b6104046103f36103c9565b6103fb6100f2565b9182918261037f565b0390f35b6100f8565b61041960055f90610355565b90565b3461044c5761042c366004610294565b61044861043761040d565b61043f6100f2565b9182918261037f565b0390f35b6100f8565b60018060a01b031690565b61046c90600861047193026101c5565b610451565b90565b9061047f915461045c565b90565b61048d5f5f90610474565b90565b90565b6104a76104a26104ac92610226565b610490565b610226565b90565b6104b890610493565b90565b6104c4906104af565b90565b6104d0906104bb565b9052565b91906104e7905f602085019401906104c7565b565b34610519576104f9366004610294565b610515610504610482565b61050c6100f2565b918291826104d4565b0390f35b6100f8565b61052781610231565b0361052e57565b5f80fd5b9050359061053f8261051e565b565b9060208282031261055a57610557915f01610532565b90565b6100fc565b610568906104af565b90565b906105759061055f565b5f5260205260405f2090565b5f1c90565b61059261059791610581565b61033a565b90565b6105a49054610586565b90565b60ff1690565b6105b96105be91610581565b6105a7565b90565b6105cb90546105ad565b90565b60081c90565b60ff1690565b6105e66105eb916105ce565b6105d4565b90565b6105f890546105da565b90565b90565b61060a61060f91610581565b6105fb565b90565b61061c90546105fe565b90565b61062a90600461056b565b906106365f830161059a565b91610643600182016105c1565b9161065c6002610655600185016105ee565b9301610612565b90565b634e487b7160e01b5f52602160045260245ffd5b6002111561067d57565b61065f565b9061068c82610673565b565b61069790610682565b90565b6106a39061068e565b9052565b151590565b6106b5906106a7565b9052565b90565b6106c5906106b9565b9052565b6106fe610705946106f46060949897956106ea608086019a5f870190610372565b602085019061069a565b60408301906106ac565b01906106bc565b565b3461073b5761073761072261071d366004610541565b61061f565b9061072e9492946100f2565b948594856106c9565b0390f35b6100f8565b61074c60015f906101ec565b90565b3461077f5761075f366004610294565b61077b61076a610740565b6107726100f2565b9182918261024a565b0390f35b6100f8565b9190610797905f602085019401906106bc565b565b346107c9576107a9366004610294565b6107c56107b46113e0565b6107bc6100f2565b91829182610784565b0390f35b6100f8565b346107fc576107de366004610294565b6107e66115fa565b6107ee6100f2565b806107f881610144565b0390f35b6100f8565b61080d60065f90610355565b90565b3461084057610820366004610294565b61083c61082b610801565b6108336100f2565b9182918261037f565b0390f35b6100f8565b5f80fd5b61085561085a91610581565b6101c9565b90565b6108679054610849565b90565b60209181520190565b60207f7465000000000000000000000000000000000000000000000000000000000000917f4f6e6c79206f776e65722063616e2073657420636f6d6d697373696f6e2072615f8201520152565b6108cd602260409261086a565b6108d681610873565b0190565b6108ef9060208101905f8183039101526108c0565b90565b156108f957565b6109016100f2565b62461bcd60e51b815280610917600482016108da565b0390fd5b90565b61093261092d6109379261091b565b610490565b610100565b90565b5f7f436f6d6d697373696f6e2072617465206d757374206265203c3d203130302500910152565b61096e601f60209261086a565b6109778161093a565b0190565b6109909060208101905f818303910152610961565b90565b1561099a57565b6109a26100f2565b62461bcd60e51b8152806109b86004820161097b565b0390fd5b5f1b90565b906109cd5f19916109bc565b9181191691161790565b6109eb6109e66109f092610100565b610490565b610100565b90565b90565b90610a0b610a06610a12926109d7565b6109f3565b82546109c1565b9055565b610a6490610a3f33610a39610a33610a2e600161085d565b610231565b91610231565b146108f2565b610a5d81610a56610a50606461091e565b91610100565b1115610993565b60026109f6565b565b5f7f4f6e6c79206f776e65722063616e207769746864726177000000000000000000910152565b610a9a601760209261086a565b610aa381610a66565b0190565b610abc9060208101905f818303910152610a8d565b90565b15610ac657565b610ace6100f2565b62461bcd60e51b815280610ae460048201610aa7565b0390fd5b634e487b7160e01b5f52601160045260245ffd5b610b0b610b1191939293610100565b92610100565b91610b1d838202610100565b928184041490151715610b2c57565b610ae8565b634e487b7160e01b5f52601260045260245ffd5b610b51610b5791610100565b91610100565b908115610b62570490565b610b31565b610b76610b7c91939293610100565b92610100565b8203918211610b8757565b610ae8565b610b9590610493565b90565b610ba190610b8c565b90565b610bad906104af565b90565b905090565b610bc05f8092610bb0565b0190565b610bcd90610bb5565b90565b601f801991011690565b634e487b7160e01b5f52604160045260245ffd5b90610bf890610bd0565b810190811067ffffffffffffffff821117610c1257604052565b610bda565b90610c2a610c236100f2565b9283610bee565b565b67ffffffffffffffff8111610c4a57610c46602091610bd0565b0190565b610bda565b90610c61610c5c83610c2c565b610c17565b918252565b606090565b3d5f14610c8657610c7b3d610c4f565b903d5f602084013e5b565b610c8e610c66565b90610c84565b5f7f5472616e73666572206661696c65640000000000000000000000000000000000910152565b610cc8600f60209261086a565b610cd181610c94565b0190565b610cea9060208101905f818303910152610cbb565b90565b15610cf457565b610cfc6100f2565b62461bcd60e51b815280610d1260048201610cd5565b0390fd5b610d3b33610d35610d2f610d2a600161085d565b610231565b91610231565b14610abf565b610dcd5f80610d70610d60610d50600561059a565b610d5a600261059a565b90610afc565b610d6a606461091e565b90610b45565b610d8d610d8682610d81600561059a565b610b67565b60056109f6565b610da7610da2610d9d600161085d565b610b98565b610ba4565b90610db06100f2565b9081610dbb81610bc4565b03925af1610dc7610c6b565b50610ced565b565b90565b610de6610de1610deb92610dcf565b610490565b610100565b90565b60207f3000000000000000000000000000000000000000000000000000000000000000917f42657420616d6f756e74206d7573742062652067726561746572207468616e205f8201520152565b610e48602160409261086a565b610e5181610dee565b0190565b610e6a9060208101905f818303910152610e3b565b90565b15610e7457565b610e7c6100f2565b62461bcd60e51b815280610e9260048201610e55565b0390fd5b5f7f416c726561647920706c61636564206120626574000000000000000000000000910152565b610eca601460209261086a565b610ed381610e96565b0190565b610eec9060208101905f818303910152610ebd565b90565b15610ef657565b610efe6100f2565b62461bcd60e51b815280610f1460048201610ed7565b0390fd5b610f226080610c17565b90565b90610f2f90610100565b9052565b90610f3d90610682565b9052565b90610f4b906106a7565b9052565b90610f59906106b9565b9052565b610f679051610100565b90565b610f749051610682565b90565b90610f8360ff916109bc565b9181191691161790565b610f9690610682565b90565b90565b90610fb1610fac610fb892610f8d565b610f99565b8254610f77565b9055565b610fc690516106a7565b90565b60081b90565b90610fdc61ff0091610fc9565b9181191691161790565b610fef906106a7565b90565b90565b9061100a61100561101192610fe6565b610ff2565b8254610fcf565b9055565b61101f90516106b9565b90565b61103661103161103b926106b9565b610490565b6106b9565b90565b90565b9061105661105161105d92611022565b61103e565b82546109c1565b9055565b906110be606060026110c4946110845f820161107e5f8801610f5d565b906109f6565b61109d6001820161109760208801610f6a565b90610f9c565b6110b6600182016110b060408801610fbc565b90610ff5565b019201611015565b90611041565b565b906110d091611061565b565b90565b5f5260205f2090565b5490565b6110eb816110de565b821015611105576110fd6001916110d5565b910201905f90565b61017c565b1b90565b9190600861112e91029161112860018060a01b038461110a565b9261110a565b9181191691161790565b90565b919061115161114c6111599361055f565b611138565b90835461110e565b9055565b908154916801000000000000000083101561118d578261118591600161118b950181556110e2565b9061113b565b565b610bda565b6111a16111a791939293610100565b92610100565b82018092116111b257565b610ae8565b6111d3346111cd6111c75f610dd2565b91610100565b11610e6d565b6112046111ec5f6111e66004339061056b565b0161059a565b6111fe6111f85f610dd2565b91610100565b14610eef565b61125f61120f6113e0565b61124e3491611245859161123c5f919361123361122a610f18565b975f8901610f25565b60208701610f33565b60408501610f41565b60608301610f4f565b61125a6004339061056b565b6110c6565b61127361126c60036110d2565b339061115d565b61129061128934611284600561059a565b611192565b60056109f6565b6112a261129c5f610682565b91610682565b145f146112c9576112c66112bf346112ba600661059a565b611192565b60066109f6565b5b565b6112e66112df346112da600761059a565b611192565b60076109f6565b6112c7565b5f90565b6112fb61130091610581565b610451565b90565b61130d90546112ef565b90565b60e01b90565b69ffffffffffffffffffff1690565b61132e81611316565b0361133557565b5f80fd5b9050519061134682611325565b565b611351816106b9565b0361135857565b5f80fd5b9050519061136982611348565b565b9050519061137882610103565b565b919060a0838203126113cb57611392815f8501611339565b926113a0826020830161135c565b926113c86113b1846040850161136b565b936113bf816060860161136b565b93608001611339565b90565b6100fc565b6113d86100f2565b3d5f823e3d90fd5b6113e86112eb565b5061141560a06113ff6113fa5f611303565b6104bb565b63feaf968c9061140d6100f2565b938492611310565b8252818061142560048201610144565b03915afa90811561146f575f8092905061143e575b5090565b61145f915060a03d8111611468575b6114578183610bee565b81019061137a565b5050509061143a565b503d61144d565b6113d0565b5f7f4e6f2062657420706c6163656400000000000000000000000000000000000000910152565b6114a8600d60209261086a565b6114b181611474565b0190565b6114ca9060208101905f81830391015261149b565b90565b156114d457565b6114dc6100f2565b62461bcd60e51b8152806114f2600482016114b5565b0390fd5b5f7f416c726561647920636c61696d65640000000000000000000000000000000000910152565b61152a600f60209261086a565b611533816114f6565b0190565b61154c9060208101905f81830391015261151d565b90565b1561155657565b61155e6100f2565b62461bcd60e51b81528061157460048201611537565b0390fd5b5f7f4e6f2077696e6e6572732c206e6f207061796f75740000000000000000000000910152565b6115ac601560209261086a565b6115b581611578565b0190565b6115ce9060208101905f81830391015261159f565b90565b156115d857565b6115e06100f2565b62461bcd60e51b8152806115f6600482016115b9565b0390fd5b61162b6116135f61160d6004339061056b565b0161059a565b61162561161f5f610dd2565b91610100565b116114cd565b61165361164e61164860016116426004339061056b565b016105ee565b156106a7565b61154f565b61165b6113e0565b61168361167d61167860026116726004339061056b565b01610612565b6106b9565b916106b9565b135f146117eb575f5b8061169f6116995f610682565b91610682565b145f146117dc576116b0600661059a565b5b6116c56116be600561059a565b8290610b67565b916116e2826116dc6116d65f610dd2565b91610100565b116115d1565b61170b6117056116ff60016116f96004339061056b565b016105c1565b92610682565b91610682565b1461172d575b505061172b6001806117256004339061056b565b01610ff5565b565b5f61179e6117d5936117986117886117658596611760611759886117536004339061056b565b0161059a565b9586610afc565b610b45565b611782606461177d611777600261059a565b9161091e565b610b67565b90610afc565b611792606461091e565b90610b45565b90611192565b6117af6117aa33610b98565b610ba4565b906117b86100f2565b90816117c381610bc4565b03925af16117cf610c6b565b50610ced565b5f80611711565b6117e6600761059a565b6116b1565b600161168c56fea26469706673582212207f5c8afbb4ccb5dec6cb217623aab42a3cded5657e36c2cc1024ff20c644ba3b64736f6c634300081c0033","linkReferences":{}},"methodIdentifiers":{"bets(address)":"89a78f1a","bettors(uint256)":"3482b644","commissionRate()":"5ea1d6f8","getLatestPrice()":"8e15f473","owner()":"8da5cb5b","placeBet(uint8)":"43046844","priceFeed()":"741bef1a","resolveBet()":"8fced626","setCommissionRate(uint256)":"19fac8fd","totalBetAmount()":"613f4594","totalFallBets()":"5e63ee57","totalRiseBets()":"cd536db0","withdrawCommission()":"3e25e837"},"id":19}