{"abi":[{"type":"constructor","inputs":[],"stateMutability":"nonpayable"},{"type":"function","name":"bets","inputs":[{"name":"","type":"address","internalType":"address"}],"outputs":[{"name":"amount","type":"uint256","internalType":"uint256"},{"name":"prediction","type":"uint8","internalType":"enum CryptoBetting.Prediction"},{"name":"claimed","type":"bool","internalType":"bool"},{"name":"entryPrice","type":"int256","internalType":"int256"}],"stateMutability":"view"},{"type":"function","name":"commissionRate","inputs":[],"outputs":[{"name":"","type":"uint256","internalType":"uint256"}],"stateMutability":"view"},{"type":"function","name":"getLatestPrice","inputs":[],"outputs":[{"name":"","type":"int256","internalType":"int256"}],"stateMutability":"view"},{"type":"function","name":"owner","inputs":[],"outputs":[{"name":"","type":"address","internalType":"address"}],"stateMutability":"view"},{"type":"function","name":"placeBet","inputs":[{"name":"_prediction","type":"uint8","internalType":"enum CryptoBetting.Prediction"}],"outputs":[],"stateMutability":"payable"},{"type":"function","name":"resolveBet","inputs":[],"outputs":[],"stateMutability":"nonpayable"},{"type":"function","name":"totalBetAmount","inputs":[],"outputs":[{"name":"","type":"uint256","internalType":"uint256"}],"stateMutability":"view"}],"bytecode":{"object":"0x608060405260056001553480156013575f5ffd5b50335f5f6101000a81548173ffffffffffffffffffffffffffffffffffffffff021916908373ffffffffffffffffffffffffffffffffffffffff160217905550610ed4806100605f395ff3fe60806040526004361061006f575f3560e01c806389a78f1a1161004d57806389a78f1a146100e35780638da5cb5b146101225780638e15f4731461014c5780638fced626146101765761006f565b806343046844146100735780635ea1d6f81461008f578063613f4594146100b9575b5f5ffd5b61008d600480360381019061008891906107da565b61018c565b005b34801561009a575f5ffd5b506100a361034c565b6040516100b0919061081d565b60405180910390f35b3480156100c4575f5ffd5b506100cd610352565b6040516100da919061081d565b60405180910390f35b3480156100ee575f5ffd5b5061010960048036038101906101049190610890565b610358565b6040516101199493929190610960565b60405180910390f35b34801561012d575f5ffd5b5061013661039d565b60405161014391906109b2565b60405180910390f35b348015610157575f5ffd5b506101606103c1565b60405161016d91906109cb565b60405180910390f35b348015610181575f5ffd5b5061018a610451565b005b5f34116101ce576040517f08c379a00000000000000000000000000000000000000000000000000000000081526004016101c590610a64565b60405180910390fd5b5f60025f3373ffffffffffffffffffffffffffffffffffffffff1673ffffffffffffffffffffffffffffffffffffffff1681526020019081526020015f205f01541461024f576040517f08c379a000000000000000000000000000000000000000000000000000000000815260040161024690610acc565b60405180910390fd5b5f6102586103c1565b9050604051806080016040528034815260200183600181111561027e5761027d6108bb565b5b81526020015f151581526020018281525060025f3373ffffffffffffffffffffffffffffffffffffffff1673ffffffffffffffffffffffffffffffffffffffff1681526020019081526020015f205f820151815f01556020820151816001015f6101000a81548160ff021916908360018111156102fe576102fd6108bb565b5b021790555060408201518160010160016101000a81548160ff021916908315150217905550606082015181600201559050503460035f8282546103419190610b17565b925050819055505050565b60015481565b60035481565b6002602052805f5260405f205f91509050805f015490806001015f9054906101000a900460ff16908060010160019054906101000a900460ff16908060020154905084565b5f5f9054906101000a900473ffffffffffffffffffffffffffffffffffffffff1681565b5f5f73e7656e23fe8077d438aefbec2fabdf2d8e070c4f73ffffffffffffffffffffffffffffffffffffffff1663feaf968c6040518163ffffffff1660e01b815260040160a060405180830381865afa158015610420573d5f5f3e3d5ffd5b505050506040513d601f19601f820116820180604052508101906104449190610bdd565b5050509150508091505090565b5f60025f3373ffffffffffffffffffffffffffffffffffffffff1673ffffffffffffffffffffffffffffffffffffffff1681526020019081526020015f205f0154116104d2576040517f08c379a00000000000000000000000000000000000000000000000000000000081526004016104c990610c9e565b60405180910390fd5b60025f3373ffffffffffffffffffffffffffffffffffffffff1673ffffffffffffffffffffffffffffffffffffffff1681526020019081526020015f2060010160019054906101000a900460ff1615610560576040517f08c379a000000000000000000000000000000000000000000000000000000000815260040161055790610d06565b60405180910390fd5b5f6105696103c1565b90505f60025f3373ffffffffffffffffffffffffffffffffffffffff1673ffffffffffffffffffffffffffffffffffffffff1681526020019081526020015f206002015490505f60025f3373ffffffffffffffffffffffffffffffffffffffff1673ffffffffffffffffffffffffffffffffffffffff1681526020019081526020015f206001015f9054906101000a900460ff1690505f5f90505f6001811115610616576106156108bb565b5b826001811115610629576106286108bb565b5b14801561063557508284135b8061066e575060018081111561064e5761064d6108bb565b5b826001811115610661576106606108bb565b5b14801561066d57508284125b5b1561067857600190505b8015610754575f606460015460646106909190610d24565b60035461069d9190610d57565b6106a79190610dc5565b90505f3373ffffffffffffffffffffffffffffffffffffffff16826040516106ce90610e22565b5f6040518083038185875af1925050503d805f8114610708576040519150601f19603f3d011682016040523d82523d5f602084013e61070d565b606091505b5050905080610751576040517f08c379a000000000000000000000000000000000000000000000000000000000815260040161074890610e80565b60405180910390fd5b50505b600160025f3373ffffffffffffffffffffffffffffffffffffffff1673ffffffffffffffffffffffffffffffffffffffff1681526020019081526020015f2060010160016101000a81548160ff02191690831515021790555050505050565b5f5ffd5b600281106107c3575f5ffd5b50565b5f813590506107d4816107b7565b92915050565b5f602082840312156107ef576107ee6107b3565b5b5f6107fc848285016107c6565b91505092915050565b5f819050919050565b61081781610805565b82525050565b5f6020820190506108305f83018461080e565b92915050565b5f73ffffffffffffffffffffffffffffffffffffffff82169050919050565b5f61085f82610836565b9050919050565b61086f81610855565b8114610879575f5ffd5b50565b5f8135905061088a81610866565b92915050565b5f602082840312156108a5576108a46107b3565b5b5f6108b28482850161087c565b91505092915050565b7f4e487b71000000000000000000000000000000000000000000000000000000005f52602160045260245ffd5b600281106108f9576108f86108bb565b5b50565b5f819050610909826108e8565b919050565b5f610918826108fc565b9050919050565b6109288161090e565b82525050565b5f8115159050919050565b6109428161092e565b82525050565b5f819050919050565b61095a81610948565b82525050565b5f6080820190506109735f83018761080e565b610980602083018661091f565b61098d6040830185610939565b61099a6060830184610951565b95945050505050565b6109ac81610855565b82525050565b5f6020820190506109c55f8301846109a3565b92915050565b5f6020820190506109de5f830184610951565b92915050565b5f82825260208201905092915050565b7f42657420616d6f756e74206d7573742062652067726561746572207468616e205f8201527f3000000000000000000000000000000000000000000000000000000000000000602082015250565b5f610a4e6021836109e4565b9150610a59826109f4565b604082019050919050565b5f6020820190508181035f830152610a7b81610a42565b9050919050565b7f557365722068617320616c726561647920706c616365642061206265740000005f82015250565b5f610ab6601d836109e4565b9150610ac182610a82565b602082019050919050565b5f6020820190508181035f830152610ae381610aaa565b9050919050565b7f4e487b71000000000000000000000000000000000000000000000000000000005f52601160045260245ffd5b5f610b2182610805565b9150610b2c83610805565b9250828201905080821115610b4457610b43610aea565b5b92915050565b5f69ffffffffffffffffffff82169050919050565b610b6881610b4a565b8114610b72575f5ffd5b50565b5f81519050610b8381610b5f565b92915050565b610b9281610948565b8114610b9c575f5ffd5b50565b5f81519050610bad81610b89565b92915050565b610bbc81610805565b8114610bc6575f5ffd5b50565b5f81519050610bd781610bb3565b92915050565b5f5f5f5f5f60a08688031215610bf657610bf56107b3565b5b5f610c0388828901610b75565b9550506020610c1488828901610b9f565b9450506040610c2588828901610bc9565b9350506060610c3688828901610bc9565b9250506080610c4788828901610b75565b9150509295509295909350565b7f4e6f2062657420706c61636564000000000000000000000000000000000000005f82015250565b5f610c88600d836109e4565b9150610c9382610c54565b602082019050919050565b5f6020820190508181035f830152610cb581610c7c565b9050919050565b7f416c726561647920636c61696d656400000000000000000000000000000000005f82015250565b5f610cf0600f836109e4565b9150610cfb82610cbc565b602082019050919050565b5f6020820190508181035f830152610d1d81610ce4565b9050919050565b5f610d2e82610805565b9150610d3983610805565b9250828203905081811115610d5157610d50610aea565b5b92915050565b5f610d6182610805565b9150610d6c83610805565b9250828202610d7a81610805565b91508282048414831517610d9157610d90610aea565b5b5092915050565b7f4e487b71000000000000000000000000000000000000000000000000000000005f52601260045260245ffd5b5f610dcf82610805565b9150610dda83610805565b925082610dea57610de9610d98565b5b828204905092915050565b5f81905092915050565b50565b5f610e0d5f83610df5565b9150610e1882610dff565b5f82019050919050565b5f610e2c82610e02565b9150819050919050565b7f5472616e73666572206661696c656400000000000000000000000000000000005f82015250565b5f610e6a600f836109e4565b9150610e7582610e36565b602082019050919050565b5f6020820190508181035f830152610e9781610e5e565b905091905056fea264697066735822122093c270f9d07e40488a68aff206adf90662f24112a827f2b9c35cb217fecc35f764736f6c634300081c0033","linkReferences":{}},"methodIdentifiers":{"bets(address)":"89a78f1a","commissionRate()":"5ea1d6f8","getLatestPrice()":"8e15f473","owner()":"8da5cb5b","placeBet(uint8)":"43046844","resolveBet()":"8fced626","totalBetAmount()":"613f4594"},"id":21}