{"abi":[{"type":"constructor","inputs":[],"stateMutability":"nonpayable"},{"type":"function","name":"addCrypto","inputs":[{"name":"symbol","type":"string","internalType":"string"},{"name":"priceFeed","type":"address","internalType":"address"}],"outputs":[],"stateMutability":"nonpayable"},{"type":"function","name":"bets","inputs":[{"name":"","type":"string","internalType":"string"},{"name":"","type":"address","internalType":"address"}],"outputs":[{"name":"amount","type":"uint256","internalType":"uint256"},{"name":"prediction","type":"uint8","internalType":"enum MultiCryptoBetting.Prediction"},{"name":"claimed","type":"bool","internalType":"bool"},{"name":"entryPrice","type":"int256","internalType":"int256"}],"stateMutability":"view"},{"type":"function","name":"bettors","inputs":[{"name":"","type":"string","internalType":"string"},{"name":"","type":"uint256","internalType":"uint256"}],"outputs":[{"name":"","type":"address","internalType":"address"}],"stateMutability":"view"},{"type":"function","name":"commissionRate","inputs":[],"outputs":[{"name":"","type":"uint256","internalType":"uint256"}],"stateMutability":"view"},{"type":"function","name":"cryptoPools","inputs":[{"name":"","type":"string","internalType":"string"}],"outputs":[{"name":"priceFeed","type":"address","internalType":"address"},{"name":"totalBetAmount","type":"uint256","internalType":"uint256"},{"name":"totalRiseBets","type":"uint256","internalType":"uint256"},{"name":"totalFallBets","type":"uint256","internalType":"uint256"}],"stateMutability":"view"},{"type":"function","name":"getLatestPrice","inputs":[{"name":"symbol","type":"string","internalType":"string"}],"outputs":[{"name":"","type":"int256","internalType":"int256"}],"stateMutability":"view"},{"type":"function","name":"owner","inputs":[],"outputs":[{"name":"","type":"address","internalType":"address"}],"stateMutability":"view"},{"type":"function","name":"placeBet","inputs":[{"name":"symbol","type":"string","internalType":"string"},{"name":"_prediction","type":"uint8","internalType":"enum MultiCryptoBetting.Prediction"}],"outputs":[],"stateMutability":"payable"},{"type":"function","name":"resolveBet","inputs":[{"name":"symbol","type":"string","internalType":"string"}],"outputs":[],"stateMutability":"nonpayable"},{"type":"function","name":"withdrawCommission","inputs":[{"name":"symbol","type":"string","internalType":"string"}],"outputs":[],"stateMutability":"nonpayable"}],"bytecode":{"object":"0x60806040523461002757610011610116565b61001961002c565b611c6561012f8239611c6590f35b610032565b60405190565b5f80fd5b5f1b90565b906100475f1991610036565b9181191691161790565b90565b90565b90565b61006e61006961007392610051565b610057565b610054565b90565b90565b9061008e6100896100959261005a565b610076565b825461003b565b9055565b906100aa60018060a01b0391610036565b9181191691161790565b60018060a01b031690565b6100d36100ce6100d8926100b4565b610057565b6100b4565b90565b6100e4906100bf565b90565b6100f0906100db565b90565b90565b9061010b610106610112926100e7565b6100f3565b8254610099565b9055565b61012260056001610079565b61012c335f6100f6565b56fe60806040526004361015610013575b6109db565b61001d5f356100bc565b80631f6be049146100b75780632a3ef71e146100b25780633414c4a4146100ad57806334ca0205146100a85780635ea1d6f8146100a3578063653718181461009e5780638da5cb5b14610099578063cbe3871414610094578063ef1aa3ca1461008f5763f66a1b710361000e576109a6565b61095b565b610830565b610750565b6106bc565b610687565b6105f7565b61058e565b610564565b6104c3565b60e01c90565b60405190565b5f80fd5b5f80fd5b5f80fd5b5f80fd5b5f80fd5b601f801991011690565b634e487b7160e01b5f52604160045260245ffd5b90610104906100dc565b810190811067ffffffffffffffff82111761011e57604052565b6100e6565b9061013661012f6100c2565b92836100fa565b565b67ffffffffffffffff8111610156576101526020916100dc565b0190565b6100e6565b90825f939282370152565b9092919261017b61017682610138565b610123565b93818552602085019082840111610197576101959261015b565b565b6100d8565b9080601f830112156101ba578160206101b793359101610166565b90565b6100d4565b60018060a01b031690565b6101d3906101bf565b90565b6101df816101ca565b036101e657565b5f80fd5b905035906101f7826101d6565b565b9190604083820312610239575f8301359067ffffffffffffffff8211610234576102288161023193860161019c565b936020016101ea565b90565b6100d0565b6100cc565b5190565b905090565b90825f9392825e0152565b61027761026e926020926102658161023e565b94858093610242565b93849101610247565b0190565b90565b90565b61028d6102929161027b565b61027e565b9052565b6102a66102ad9160209493610252565b8092610281565b0190565b6102c56102bc6100c2565b92839283610296565b03902090565b6102d4916102b1565b90565b90565b6102ee6102e96102f3926101bf565b6102d7565b6101bf565b90565b6102ff906102da565b90565b61030b906102f6565b90565b9061031890610302565b5f5260205260405f2090565b5f1c90565b90565b61033861033d91610324565b610329565b90565b61034a905461032c565b90565b60ff1690565b61035f61036491610324565b61034d565b90565b6103719054610353565b90565b60081c90565b60ff1690565b61038c61039191610374565b61037a565b90565b61039e9054610380565b90565b90565b6103b06103b591610324565b6103a1565b90565b6103c290546103a4565b90565b906103d46103d99260036102cb565b61030e565b906103e55f8301610340565b916103f260018201610367565b9161040b600261040460018501610394565b93016103b8565b90565b6104179061027b565b9052565b634e487b7160e01b5f52602160045260245ffd5b6002111561043957565b61041b565b906104488261042f565b565b6104539061043e565b90565b61045f9061044a565b9052565b151590565b61047190610463565b9052565b90565b61048190610475565b9052565b6104ba6104c1946104b06060949897956104a6608086019a5f87019061040e565b6020850190610456565b6040830190610468565b0190610478565b565b346104f8576104f46104df6104d93660046101f9565b906103c5565b906104eb9492946100c2565b94859485610485565b0390f35b6100c8565b6002111561050757565b5f80fd5b90503590610518826104fd565b565b919060408382031261055a575f8301359067ffffffffffffffff8211610555576105498161055293860161019c565b9360200161050b565b90565b6100d0565b6100cc565b5f0190565b61057861057236600461051a565b90610ee8565b6105806100c2565b8061058a8161055f565b0390f35b346105bd576105a76105a13660046101f9565b90611277565b6105af6100c2565b806105b98161055f565b0390f35b6100c8565b906020828203126105f2575f82013567ffffffffffffffff81116105ed576105ea920161019c565b90565b6100d0565b6100cc565b346106255761060f61060a3660046105c2565b6116a2565b6106176100c2565b806106218161055f565b0390f35b6100c8565b5f91031261063457565b6100cc565b1c90565b61064d9060086106529302610639565b610329565b90565b90610660915461063d565b90565b61066f60015f90610655565b90565b9190610685905f6020850194019061040e565b565b346106b75761069736600461062a565b6106b36106a2610663565b6106aa6100c2565b91829182610672565b0390f35b6100c8565b346106ea576106d46106cf3660046105c2565b611982565b6106dc6100c2565b806106e68161055f565b0390f35b6100c8565b60018060a01b031690565b61070a90600861070f9302610639565b6106ef565b90565b9061071d91546106fa565b90565b61072b5f5f90610712565b90565b610737906101ca565b9052565b919061074e905f6020850194019061072e565b565b346107805761076036600461062a565b61077c61076b610720565b6107736100c2565b9182918261073b565b0390f35b6100c8565b61078e916102b1565b90565b61079d6107a291610324565b6106ef565b90565b6107af9054610791565b90565b6107bd906002610785565b906107c95f83016107a5565b916107d660018201610340565b916107ef60036107e860028501610340565b9301610340565b90565b61082761082e9461081d606094989795610813608086019a5f87019061072e565b602085019061040e565b604083019061040e565b019061040e565b565b346108645761086061084b6108463660046105c2565b6107b2565b906108579492946100c2565b948594856107f2565b0390f35b6100c8565b6108728161027b565b0361087957565b5f80fd5b9050359061088a82610869565b565b91906040838203126108cc575f8301359067ffffffffffffffff82116108c7576108bb816108c493860161019c565b9360200161087d565b90565b6100d0565b6100cc565b6108da916102b1565b90565b634e487b7160e01b5f52603260045260245ffd5b5490565b5f5260205f2090565b610907816108f1565b821015610921576109196001916108f5565b910201905f90565b6108dd565b6109319060046108d1565b61093a816108f1565b821015610957576109549161094e916108fe565b90610712565b90565b5f80fd5b3461098c5761098861097761097136600461088c565b90610926565b61097f6100c2565b9182918261073b565b0390f35b6100c8565b91906109a4905f60208501940190610478565b565b346109d6576109d26109c16109bc3660046105c2565b611b4d565b6109c96100c2565b91829182610991565b0390f35b6100c8565b5f80fd5b90565b6109f66109f16109fb926109df565b6102d7565b61027b565b90565b60209181520190565b60207f3000000000000000000000000000000000000000000000000000000000000000917f42657420616d6f756e74206d7573742062652067726561746572207468616e205f8201520152565b610a6160216040926109fe565b610a6a81610a07565b0190565b610a839060208101905f818303910152610a54565b90565b15610a8d57565b610a956100c2565b62461bcd60e51b815280610aab60048201610a6e565b0390fd5b610ac3610abe610ac8926109df565b6102d7565b6101bf565b90565b610ad490610aaf565b90565b5f7f496e76616c69642063727970746f000000000000000000000000000000000000910152565b610b0b600e6020926109fe565b610b1481610ad7565b0190565b610b2d9060208101905f818303910152610afe565b90565b15610b3757565b610b3f6100c2565b62461bcd60e51b815280610b5560048201610b18565b0390fd5b5f7f416c726561647920706c61636564206120626574000000000000000000000000910152565b610b8d60146020926109fe565b610b9681610b59565b0190565b610baf9060208101905f818303910152610b80565b90565b15610bb957565b610bc16100c2565b62461bcd60e51b815280610bd760048201610b9a565b0390fd5b610be56080610123565b90565b90610bf29061027b565b9052565b90610c009061043e565b9052565b90610c0e90610463565b9052565b90610c1c90610475565b9052565b610c2a905161027b565b90565b5f1b90565b90610c3e5f1991610c2d565b9181191691161790565b610c5c610c57610c619261027b565b6102d7565b61027b565b90565b90565b90610c7c610c77610c8392610c48565b610c64565b8254610c32565b9055565b610c91905161043e565b90565b90610ca060ff91610c2d565b9181191691161790565b610cb39061043e565b90565b90565b90610cce610cc9610cd592610caa565b610cb6565b8254610c94565b9055565b610ce39051610463565b90565b60081b90565b90610cf961ff0091610ce6565b9181191691161790565b610d0c90610463565b90565b90565b90610d27610d22610d2e92610d03565b610d0f565b8254610cec565b9055565b610d3c9051610475565b90565b610d53610d4e610d5892610475565b6102d7565b610475565b90565b90565b90610d73610d6e610d7a92610d3f565b610d5b565b8254610c32565b9055565b90610ddb60606002610de194610da15f8201610d9b5f8801610c20565b90610c67565b610dba60018201610db460208801610c87565b90610cb9565b610dd360018201610dcd60408801610cd9565b90610d12565b019201610d32565b90610d5e565b565b90610ded91610d7e565b565b90565b5f5260205f2090565b5490565b610e0881610dfb565b821015610e2257610e1a600191610df2565b910201905f90565b6108dd565b1b90565b91906008610e4b910291610e4560018060a01b0384610e27565b92610e27565b9181191691161790565b90565b9190610e6e610e69610e7693610302565b610e55565b908354610e2b565b9055565b9081549168010000000000000000831015610eaa5782610ea2916001610ea895018155610dff565b90610e58565b565b6100e6565b634e487b7160e01b5f52601160045260245ffd5b610ed2610ed89193929361027b565b9261027b565b8201809211610ee357565b610eaf565b90610f0534610eff610ef95f6109e2565b9161027b565b11610a86565b610f3f610f1e5f610f1860028690610785565b016107a5565b610f38610f32610f2d5f610acb565b6101ca565b916101ca565b1415610b30565b610f7a610f625f610f5c610f55600387906102cb565b339061030e565b01610340565b610f74610f6e5f6109e2565b9161027b565b14610bb2565b610fe0610f8683611b4d565b610fc53491610fbc8591610fb35f9193610faa610fa1610bdb565b975f8901610be8565b60208701610bf6565b60408501610c04565b60608301610c12565b610fdb610fd4600386906102cb565b339061030e565b610de3565b610ffe610ff7610ff2600485906108d1565b610def565b3390610e7a565b61102934611023600161101360028790610785565b019161101e83610340565b610ec3565b90610c67565b61103b6110355f61043e565b9161043e565b145f1461106f5761106c906110666002611056349382610785565b019161106183610340565b610ec3565b90610c67565b5b565b61109a90611094600361108434936002610785565b019161108f83610340565b610ec3565b90610c67565b61106d565b5f7f4f6e6c79206f776e65722063616e206164642063727970746f73000000000000910152565b6110d3601a6020926109fe565b6110dc8161109f565b0190565b6110f59060208101905f8183039101526110c6565b90565b156110ff57565b6111076100c2565b62461bcd60e51b81528061111d600482016110e0565b0390fd5b5f7f43727970746f20616c7265616479206578697374730000000000000000000000910152565b61115560156020926109fe565b61115e81611121565b0190565b6111779060208101905f818303910152611148565b90565b1561118157565b6111896100c2565b62461bcd60e51b81528061119f60048201611162565b0390fd5b6111ad6080610123565b90565b906111ba906101ca565b9052565b6111c890516101ca565b90565b906111dc60018060a01b0391610c2d565b9181191691161790565b906111fb6111f661120292610302565b610e55565b82546111cb565b9055565b9061126360606003611269946112295f82016112235f88016111be565b906111e6565b6112426001820161123c60208801610c20565b90610c67565b61125b6002820161125560408801610c20565b90610c67565b019201610c20565b90610c67565b565b9061127591611206565b565b6113385f9161133161132861133d956112aa336112a461129e6112998a6107a5565b6101ca565b916101ca565b146110f8565b6112e36112c3876112bd60028890610785565b016107a5565b6112dd6112d76112d28a610acb565b6101ca565b916101ca565b1461117a565b61132361131a8761131561130c8a926113078c976112ff6111a3565b9d8e016111b0565b6109e2565b60208b01610be8565b6109e2565b60408801610be8565b6109e2565b60608501610be8565b6002610785565b61126b565b565b5f7f4e6f2062657420706c6163656400000000000000000000000000000000000000910152565b611373600d6020926109fe565b61137c8161133f565b0190565b6113959060208101905f818303910152611366565b90565b1561139f57565b6113a76100c2565b62461bcd60e51b8152806113bd60048201611380565b0390fd5b5f7f416c726561647920636c61696d65640000000000000000000000000000000000910152565b6113f5600f6020926109fe565b6113fe816113c1565b0190565b6114179060208101905f8183039101526113e8565b90565b1561142157565b6114296100c2565b62461bcd60e51b81528061143f60048201611402565b0390fd5b6114526114589193929361027b565b9261027b565b820391821161146357565b610eaf565b5f7f4e6f2077696e6e6572732c206e6f207061796f75740000000000000000000000910152565b61149c60156020926109fe565b6114a581611468565b0190565b6114be9060208101905f81830391015261148f565b90565b156114c857565b6114d06100c2565b62461bcd60e51b8152806114e6600482016114a9565b0390fd5b6114f96114ff9193929361027b565b9261027b565b9161150b83820261027b565b92818404149015171561151a57565b610eaf565b634e487b7160e01b5f52601260045260245ffd5b61153f6115459161027b565b9161027b565b908115611550570490565b61151f565b90565b61156c61156761157192611555565b6102d7565b61027b565b90565b61157d906102da565b90565b61158990611574565b90565b611595906102f6565b90565b905090565b6115a85f8092611598565b0190565b6115b59061159d565b90565b67ffffffffffffffff81116115d6576115d26020916100dc565b0190565b6100e6565b906115ed6115e8836115b8565b610123565b918252565b606090565b3d5f14611612576116073d6115db565b903d5f602084013e5b565b61161a6115f2565b90611610565b5f7f5472616e73666572206661696c65640000000000000000000000000000000000910152565b611654600f6020926109fe565b61165d81611620565b0190565b6116769060208101905f818303910152611647565b90565b1561168057565b6116886100c2565b62461bcd60e51b81528061169e60048201611661565b0390fd5b611822906116e16116c95f6116c36116bc600386906102cb565b339061030e565b01610340565b6116db6116d55f6109e2565b9161027b565b11611398565b61171361170e61170860016117026116fb600387906102cb565b339061030e565b01610394565b15610463565b61141a565b61171c81611b4d565b61174e611748611743600261173d611736600388906102cb565b339061030e565b016103b8565b610475565b91610475565b135f146118f9575f5b8061176a6117645f61043e565b9161043e565b145f146118dd576117876002611781818590610785565b01610340565b5b90826117ab6117a4600161179e60028590610785565b01610340565b8490611443565b916117c8846117c26117bc5f6109e2565b9161027b565b116114c1565b6117fb6117f56117ef60016117e96117e2600388906102cb565b339061030e565b01610367565b9261043e565b9161043e565b14611824575b505050600161181c611815829360036102cb565b339061030e565b01610d12565b565b61189e5f926118986118886118656118d5976118606118598961185361184c829b60036102cb565b339061030e565b01610340565b95866114ea565b611533565b611882606461187d6118776001610340565b91611558565b611443565b906114ea565b6118926064611558565b90611533565b90610ec3565b6118af6118aa33611580565b61158c565b906118b86100c2565b90816118c3816115ac565b03925af16118cf6115f7565b50611679565b5f8082611801565b6118f460036118ee60028590610785565b01610340565b611788565b6001611757565b5f7f4f6e6c79206f776e65722063616e207769746864726177000000000000000000910152565b61193460176020926109fe565b61193d81611900565b0190565b6119569060208101905f818303910152611927565b90565b1561196057565b6119686100c2565b62461bcd60e51b81528061197e60048201611941565b0390fd5b5f80611a53926119ac336119a66119a061199b866107a5565b6101ca565b916101ca565b14611959565b611a146119ec6119dc6119cc60016119c660028790610785565b01610340565b6119d66001610340565b906114ea565b6119e66064611558565b90611533565b91611a0e60016119fe85936002610785565b0191611a0983610340565b611443565b90610c67565b611a2d611a28611a23846107a5565b611580565b61158c565b90611a366100c2565b9081611a41816115ac565b03925af1611a4d6115f7565b50611679565b565b5f90565b611a62906102da565b90565b611a6e90611a59565b90565b611a7a906102f6565b90565b60e01b90565b69ffffffffffffffffffff1690565b611a9b81611a83565b03611aa257565b5f80fd5b90505190611ab382611a92565b565b611abe81610475565b03611ac557565b5f80fd5b90505190611ad682611ab5565b565b90505190611ae582610869565b565b919060a083820312611b3857611aff815f8501611aa6565b92611b0d8260208301611ac9565b92611b35611b1e8460408501611ad8565b93611b2c8160608601611ad8565b93608001611aa6565b90565b6100cc565b611b456100c2565b3d5f823e3d90fd5b60a0611bba611bb5611bb05f611baa611bd096611b68611a55565b50611ba3611b8284611b7c60028590610785565b016107a5565b611b9c611b96611b9187610acb565b6101ca565b916101ca565b1415610b30565b6002610785565b016107a5565b611a65565b611a71565b63feaf968c90611bc86100c2565b938492611a7d565b82528180611be06004820161055f565b03915afa908115611c2a575f80929050611bf9575b5090565b611c1a915060a03d8111611c23575b611c1281836100fa565b810190611ae7565b50505090611bf5565b503d611c08565b611b3d56fea26469706673582212205c061f664fb502d7aff966ea571d95c5034d39df8f8dcb5e211e9ed2973fe16a64736f6c634300081c0033","linkReferences":{}},"methodIdentifiers":{"addCrypto(string,address)":"3414c4a4","bets(string,address)":"1f6be049","bettors(string,uint256)":"ef1aa3ca","commissionRate()":"5ea1d6f8","cryptoPools(string)":"cbe38714","getLatestPrice(string)":"f66a1b71","owner()":"8da5cb5b","placeBet(string,uint8)":"2a3ef71e","resolveBet(string)":"34ca0205","withdrawCommission(string)":"65371818"},"id":19}