{"abi":[{"type":"constructor","inputs":[{"name":"_ticketPrice","type":"uint256","internalType":"uint256"},{"name":"_maxParticipants","type":"uint256","internalType":"uint256"}],"stateMutability":"nonpayable"},{"type":"function","name":"enterLottery","inputs":[],"outputs":[],"stateMutability":"payable"},{"type":"function","name":"getNumberOfParticipants","inputs":[],"outputs":[{"name":"","type":"uint256","internalType":"uint256"}],"stateMutability":"view"},{"type":"function","name":"maxParticipants","inputs":[],"outputs":[{"name":"","type":"uint256","internalType":"uint256"}],"stateMutability":"view"},{"type":"function","name":"participants","inputs":[{"name":"","type":"uint256","internalType":"uint256"}],"outputs":[{"name":"","type":"address","internalType":"address payable"}],"stateMutability":"view"},{"type":"function","name":"ticketPrice","inputs":[],"outputs":[{"name":"","type":"uint256","internalType":"uint256"}],"stateMutability":"view"},{"type":"function","name":"winner","inputs":[],"outputs":[{"name":"","type":"address","internalType":"address"}],"stateMutability":"view"},{"type":"event","name":"NewParticipant","inputs":[{"name":"participant","type":"address","indexed":false,"internalType":"address"}],"anonymous":false},{"type":"event","name":"Winner","inputs":[{"name":"winner","type":"address","indexed":false,"internalType":"address"}],"anonymous":false}],"bytecode":{"object":"0x6080604052348015600e575f5ffd5b5060405161077b38038061077b8339818101604052810190602e91906074565b8160028190555080600381905550505060ab565b5f5ffd5b5f819050919050565b6056816046565b8114605f575f5ffd5b50565b5f81519050606e81604f565b92915050565b5f5f6040838503121560875760866042565b5b5f6092858286016062565b925050602060a1858286016062565b9150509250929050565b6106c3806100b85f395ff3fe608060405260043610610054575f3560e01c80631209b1f61461005857806324924bf71461008257806335c1d349146100ac578063c1af5785146100e8578063c80c28a2146100f2578063dfbf53ae1461011c575b5f5ffd5b348015610063575f5ffd5b5061006c610146565b604051610079919061043d565b60405180910390f35b34801561008d575f5ffd5b5061009661014c565b6040516100a3919061043d565b60405180910390f35b3480156100b7575f5ffd5b506100d260048036038101906100cd9190610484565b610152565b6040516100df91906104ee565b60405180910390f35b6100f061018c565b005b3480156100fd575f5ffd5b5061010661027e565b604051610113919061043d565b60405180910390f35b348015610127575f5ffd5b50610130610289565b60405161013d9190610527565b60405180910390f35b60025481565b60035481565b5f8181548110610160575f80fd5b905f5260205f20015f915054906101000a900473ffffffffffffffffffffffffffffffffffffffff1681565b60025434146101d0576040517f08c379a00000000000000000000000000000000000000000000000000000000081526004016101c79061059a565b60405180910390fd5b5f33908060018154018082558091505060019003905f5260205f20015f9091909190916101000a81548173ffffffffffffffffffffffffffffffffffffffff021916908373ffffffffffffffffffffffffffffffffffffffff1602179055507f79229b212fa3ea547fb5e5b66090cf250d442b12a51854a030f3b796d528134e3360405161025e9190610527565b60405180910390a16003545f805490500361027c5761027b6102ae565b5b565b5f5f80549050905090565b60015f9054906101000a900473ffffffffffffffffffffffffffffffffffffffff1681565b5f5f8054905042446040516020016102c79291906105d8565b604051602081830303815290604052805190602001205f1c6102e99190610630565b90505f81815481106102fe576102fd610660565b5b905f5260205f20015f9054906101000a900473ffffffffffffffffffffffffffffffffffffffff1660015f6101000a81548173ffffffffffffffffffffffffffffffffffffffff021916908373ffffffffffffffffffffffffffffffffffffffff16021790555060015f9054906101000a900473ffffffffffffffffffffffffffffffffffffffff1673ffffffffffffffffffffffffffffffffffffffff166108fc4790811502906040515f60405180830381858888f193505050501580156103c9573d5f5f3e3d5ffd5b507f745c90b656b4aafe296c8ca35aeacfe56cb96c90e1d320e5da643fff1051b6c060015f9054906101000a900473ffffffffffffffffffffffffffffffffffffffff1660405161041a9190610527565b60405180910390a150565b5f819050919050565b61043781610425565b82525050565b5f6020820190506104505f83018461042e565b92915050565b5f5ffd5b61046381610425565b811461046d575f5ffd5b50565b5f8135905061047e8161045a565b92915050565b5f6020828403121561049957610498610456565b5b5f6104a684828501610470565b91505092915050565b5f73ffffffffffffffffffffffffffffffffffffffff82169050919050565b5f6104d8826104af565b9050919050565b6104e8816104ce565b82525050565b5f6020820190506105015f8301846104df565b92915050565b5f610511826104af565b9050919050565b61052181610507565b82525050565b5f60208201905061053a5f830184610518565b92915050565b5f82825260208201905092915050565b7f496e636f7272656374207469636b6574207072696365000000000000000000005f82015250565b5f610584601683610540565b915061058f82610550565b602082019050919050565b5f6020820190508181035f8301526105b181610578565b9050919050565b5f819050919050565b6105d26105cd82610425565b6105b8565b82525050565b5f6105e382856105c1565b6020820191506105f382846105c1565b6020820191508190509392505050565b7f4e487b71000000000000000000000000000000000000000000000000000000005f52601260045260245ffd5b5f61063a82610425565b915061064583610425565b92508261065557610654610603565b5b828206905092915050565b7f4e487b71000000000000000000000000000000000000000000000000000000005f52603260045260245ffdfea264697066735822122043c0d34a55cdfb8e781eb1e746a23796c583609c070fd6d0101da9dc2529579664736f6c634300081c0033","linkReferences":{}},"methodIdentifiers":{"enterLottery()":"c1af5785","getNumberOfParticipants()":"c80c28a2","maxParticipants()":"24924bf7","participants(uint256)":"35c1d349","ticketPrice()":"1209b1f6","winner()":"dfbf53ae"},"id":20}