{"abi":[{"type":"constructor","inputs":[{"name":"initial","type":"string","internalType":"string"}],"stateMutability":"nonpayable"},{"type":"function","name":"message","inputs":[],"outputs":[{"name":"","type":"string","internalType":"string"}],"stateMutability":"view"},{"type":"function","name":"owner","inputs":[],"outputs":[{"name":"","type":"address","internalType":"address"}],"stateMutability":"view"},{"type":"function","name":"setMessage","inputs":[{"name":"newMessage","type":"string","internalType":"string"}],"outputs":[],"stateMutability":"nonpayable"},{"type":"function","name":"transferOwnership","inputs":[{"name":"newOwner","type":"address","internalType":"address"}],"outputs":[],"stateMutability":"nonpayable"},{"type":"error","name":"OnlyOwner","inputs":[]}],"bytecode":{"object":"0x608060405234801561000f575f5ffd5b50604051610dc4380380610dc4833981810160405281019061003191906101e5565b6100403361005660201b60201c565b806001908161004f919061043c565b505061050b565b805f5f6101000a81548173ffffffffffffffffffffffffffffffffffffffff021916908373ffffffffffffffffffffffffffffffffffffffff16021790555050565b5f604051905090565b5f5ffd5b5f5ffd5b5f5ffd5b5f5ffd5b5f601f19601f8301169050919050565b7f4e487b71000000000000000000000000000000000000000000000000000000005f52604160045260245ffd5b6100f7826100b1565b810181811067ffffffffffffffff82111715610116576101156100c1565b5b80604052505050565b5f610128610098565b905061013482826100ee565b919050565b5f67ffffffffffffffff821115610153576101526100c1565b5b61015c826100b1565b9050602081019050919050565b8281835e5f83830152505050565b5f61018961018484610139565b61011f565b9050828152602081018484840111156101a5576101a46100ad565b5b6101b0848285610169565b509392505050565b5f82601f8301126101cc576101cb6100a9565b5b81516101dc848260208601610177565b91505092915050565b5f602082840312156101fa576101f96100a1565b5b5f82015167ffffffffffffffff811115610217576102166100a5565b5b610223848285016101b8565b91505092915050565b5f81519050919050565b7f4e487b71000000000000000000000000000000000000000000000000000000005f52602260045260245ffd5b5f600282049050600182168061027a57607f821691505b60208210810361028d5761028c610236565b5b50919050565b5f819050815f5260205f209050919050565b5f6020601f8301049050919050565b5f82821b905092915050565b5f600883026102ef7fffffffffffffffffffffffffffffffffffffffffffffffffffffffffffffffff826102b4565b6102f986836102b4565b95508019841693508086168417925050509392505050565b5f819050919050565b5f819050919050565b5f61033d61033861033384610311565b61031a565b610311565b9050919050565b5f819050919050565b61035683610323565b61036a61036282610344565b8484546102c0565b825550505050565b5f5f905090565b610381610372565b61038c81848461034d565b505050565b5b818110156103af576103a45f82610379565b600181019050610392565b5050565b601f8211156103f4576103c581610293565b6103ce846102a5565b810160208510156103dd578190505b6103f16103e9856102a5565b830182610391565b50505b505050565b5f82821c905092915050565b5f6104145f19846008026103f9565b1980831691505092915050565b5f61042c8383610405565b9150826002028217905092915050565b6104458261022c565b67ffffffffffffffff81111561045e5761045d6100c1565b5b6104688254610263565b6104738282856103b3565b5f60209050601f8311600181146104a4575f8415610492578287015190505b61049c8582610421565b865550610503565b601f1984166104b286610293565b5f5b828110156104d9578489015182556001820191506020850194506020810190506104b4565b868310156104f657848901516104f2601f891682610405565b8355505b6001600288020188555050505b505050505050565b6108ac806105185f395ff3fe608060405234801561000f575f5ffd5b506004361061004a575f3560e01c8063368b87721461004e5780638da5cb5b1461006a578063e21f37ce14610088578063f2fde38b146100a6575b5f5ffd5b6100686004803603810190610063919061042d565b6100c2565b005b61007261015a565b60405161007f91906104b3565b60405180910390f35b610090610181565b60405161009d919061052c565b60405180910390f35b6100c060048036038101906100bb9190610576565b61020d565b005b5f5f9054906101000a900473ffffffffffffffffffffffffffffffffffffffff1673ffffffffffffffffffffffffffffffffffffffff163373ffffffffffffffffffffffffffffffffffffffff1614610147576040517f5fc483c500000000000000000000000000000000000000000000000000000000815260040160405180910390fd5b806001908161015691906107a7565b5050565b5f5f5f9054906101000a900473ffffffffffffffffffffffffffffffffffffffff16905090565b6001805461018e906105ce565b80601f01602080910402602001604051908101604052809291908181526020018280546101ba906105ce565b80156102055780601f106101dc57610100808354040283529160200191610205565b820191905f5260205f20905b8154815290600101906020018083116101e857829003601f168201915b505050505081565b5f5f9054906101000a900473ffffffffffffffffffffffffffffffffffffffff1673ffffffffffffffffffffffffffffffffffffffff163373ffffffffffffffffffffffffffffffffffffffff1614610292576040517f5fc483c500000000000000000000000000000000000000000000000000000000815260040160405180910390fd5b61029b8161029e565b50565b805f5f6101000a81548173ffffffffffffffffffffffffffffffffffffffff021916908373ffffffffffffffffffffffffffffffffffffffff16021790555050565b5f604051905090565b5f5ffd5b5f5ffd5b5f5ffd5b5f5ffd5b5f601f19601f8301169050919050565b7f4e487b71000000000000000000000000000000000000000000000000000000005f52604160045260245ffd5b61033f826102f9565b810181811067ffffffffffffffff8211171561035e5761035d610309565b5b80604052505050565b5f6103706102e0565b905061037c8282610336565b919050565b5f67ffffffffffffffff82111561039b5761039a610309565b5b6103a4826102f9565b9050602081019050919050565b828183375f83830152505050565b5f6103d16103cc84610381565b610367565b9050828152602081018484840111156103ed576103ec6102f5565b5b6103f88482856103b1565b509392505050565b5f82601f830112610414576104136102f1565b5b81356104248482602086016103bf565b91505092915050565b5f60208284031215610442576104416102e9565b5b5f82013567ffffffffffffffff81111561045f5761045e6102ed565b5b61046b84828501610400565b91505092915050565b5f73ffffffffffffffffffffffffffffffffffffffff82169050919050565b5f61049d82610474565b9050919050565b6104ad81610493565b82525050565b5f6020820190506104c65f8301846104a4565b92915050565b5f81519050919050565b5f82825260208201905092915050565b8281835e5f83830152505050565b5f6104fe826104cc565b61050881856104d6565b93506105188185602086016104e6565b610521816102f9565b840191505092915050565b5f6020820190508181035f83015261054481846104f4565b905092915050565b61055581610493565b811461055f575f5ffd5b50565b5f813590506105708161054c565b92915050565b5f6020828403121561058b5761058a6102e9565b5b5f61059884828501610562565b91505092915050565b7f4e487b71000000000000000000000000000000000000000000000000000000005f52602260045260245ffd5b5f60028204905060018216806105e557607f821691505b6020821081036105f8576105f76105a1565b5b50919050565b5f819050815f5260205f209050919050565b5f6020601f8301049050919050565b5f82821b905092915050565b5f6008830261065a7fffffffffffffffffffffffffffffffffffffffffffffffffffffffffffffffff8261061f565b610664868361061f565b95508019841693508086168417925050509392505050565b5f819050919050565b5f819050919050565b5f6106a86106a361069e8461067c565b610685565b61067c565b9050919050565b5f819050919050565b6106c18361068e565b6106d56106cd826106af565b84845461062b565b825550505050565b5f5f905090565b6106ec6106dd565b6106f78184846106b8565b505050565b5b8181101561071a5761070f5f826106e4565b6001810190506106fd565b5050565b601f82111561075f57610730816105fe565b61073984610610565b81016020851015610748578190505b61075c61075485610610565b8301826106fc565b50505b505050565b5f82821c905092915050565b5f61077f5f1984600802610764565b1980831691505092915050565b5f6107978383610770565b9150826002028217905092915050565b6107b0826104cc565b67ffffffffffffffff8111156107c9576107c8610309565b5b6107d382546105ce565b6107de82828561071e565b5f60209050601f83116001811461080f575f84156107fd578287015190505b610807858261078c565b86555061086e565b601f19841661081d866105fe565b5f5b828110156108445784890151825560018201915060208501945060208101905061081f565b86831015610861578489015161085d601f891682610770565b8355505b6001600288020188555050505b50505050505056fea264697066735822122063ebcab19c62e9c43926d4792195102f3c4ba86dce21d684e4e25ee612ad3e6264736f6c634300081c0033","linkReferences":{}},"methodIdentifiers":{"message()":"e21f37ce","owner()":"8da5cb5b","setMessage(string)":"368b8772","transferOwnership(address)":"f2fde38b"},"id":52}