{"abi":[{"type":"function","name":"balanceOf","inputs":[{"name":"token","type":"address","internalType":"address"},{"name":"owner","type":"address","internalType":"address"}],"outputs":[{"name":"","type":"uint256","internalType":"uint256"}],"stateMutability":"view"},{"type":"function","name":"deposit","inputs":[{"name":"token","type":"address","internalType":"address"},{"name":"amount","type":"uint256","internalType":"uint256"}],"outputs":[],"stateMutability":"nonpayable"},{"type":"function","name":"tokenBalances","inputs":[{"name":"","type":"address","internalType":"address"},{"name":"","type":"address","internalType":"address"}],"outputs":[{"name":"","type":"uint256","internalType":"uint256"}],"stateMutability":"view"},{"type":"function","name":"withdraw","inputs":[{"name":"token","type":"address","internalType":"address"},{"name":"amount","type":"uint256","internalType":"uint256"}],"outputs":[],"stateMutability":"nonpayable"}],"bytecode":{"object":"0x6080604052348015600e575f5ffd5b506102f98061001c5f395ff3fe608060405234801561000f575f5ffd5b506004361061004a575f3560e01c806347e7ef241461004e5780634dbf6c5a1461006a578063f3fef3a31461009a578063f7888aec146100b6575b5f5ffd5b6100686004803603810190610063919061021f565b6100e6565b005b610084600480360381019061007f919061025d565b6100ea565b60405161009191906102aa565b60405180910390f35b6100b460048036038101906100af919061021f565b610109565b005b6100d060048036038101906100cb919061025d565b61010d565b6040516100dd91906102aa565b60405180910390f35b5050565b5f602052815f5260405f20602052805f5260405f205f91509150505481565b5050565b5f5f5f8473ffffffffffffffffffffffffffffffffffffffff1673ffffffffffffffffffffffffffffffffffffffff1681526020019081526020015f205f8373ffffffffffffffffffffffffffffffffffffffff1673ffffffffffffffffffffffffffffffffffffffff1681526020019081526020015f2054905092915050565b5f5ffd5b5f73ffffffffffffffffffffffffffffffffffffffff82169050919050565b5f6101bb82610192565b9050919050565b6101cb816101b1565b81146101d5575f5ffd5b50565b5f813590506101e6816101c2565b92915050565b5f819050919050565b6101fe816101ec565b8114610208575f5ffd5b50565b5f81359050610219816101f5565b92915050565b5f5f604083850312156102355761023461018e565b5b5f610242858286016101d8565b92505060206102538582860161020b565b9150509250929050565b5f5f604083850312156102735761027261018e565b5b5f610280858286016101d8565b9250506020610291858286016101d8565b9150509250929050565b6102a4816101ec565b82525050565b5f6020820190506102bd5f83018461029b565b9291505056fea264697066735822122092da52623630c882fc4374cf3a09d23580dbf2fb0172eefa4e4c594468d471f764736f6c634300081c0033","linkReferences":{}},"methodIdentifiers":{"balanceOf(address,address)":"f7888aec","deposit(address,uint256)":"47e7ef24","tokenBalances(address,address)":"4dbf6c5a","withdraw(address,uint256)":"f3fef3a3"},"id":46}