{"abi":[{"type":"constructor","inputs":[{"name":"_stakingTokenAddress","type":"address","internalType":"address"},{"name":"_rewardRate","type":"uint256","internalType":"uint256"}],"stateMutability":"nonpayable"},{"type":"function","name":"calculateReward","inputs":[{"name":"account","type":"address","internalType":"address"}],"outputs":[{"name":"","type":"uint256","internalType":"uint256"}],"stateMutability":"view"},{"type":"function","name":"rewardRate","inputs":[],"outputs":[{"name":"","type":"uint256","internalType":"uint256"}],"stateMutability":"view"},{"type":"function","name":"stake","inputs":[{"name":"amount","type":"uint256","internalType":"uint256"}],"outputs":[],"stateMutability":"nonpayable"},{"type":"function","name":"stakes","inputs":[{"name":"","type":"address","internalType":"address"}],"outputs":[{"name":"","type":"uint256","internalType":"uint256"}],"stateMutability":"view"},{"type":"function","name":"stakingTime","inputs":[{"name":"","type":"address","internalType":"address"}],"outputs":[{"name":"","type":"uint256","internalType":"uint256"}],"stateMutability":"view"},{"type":"function","name":"stakingToken","inputs":[],"outputs":[{"name":"","type":"address","internalType":"contract IERC20"}],"stateMutability":"view"},{"type":"function","name":"unstake","inputs":[],"outputs":[],"stateMutability":"nonpayable"}],"bytecode":{"object":"0x608060405234801561000f575f5ffd5b506040516104e33803806104e38339818101604052810190610031919061010f565b815f5f6101000a81548173ffffffffffffffffffffffffffffffffffffffff021916908373ffffffffffffffffffffffffffffffffffffffff16021790555080600381905550505061014d565b5f5ffd5b5f73ffffffffffffffffffffffffffffffffffffffff82169050919050565b5f6100ab82610082565b9050919050565b6100bb816100a1565b81146100c5575f5ffd5b50565b5f815190506100d6816100b2565b92915050565b5f819050919050565b6100ee816100dc565b81146100f8575f5ffd5b50565b5f81519050610109816100e5565b92915050565b5f5f604083850312156101255761012461007e565b5b5f610132858286016100c8565b9250506020610143858286016100fb565b9150509250929050565b6103898061015a5f395ff3fe608060405234801561000f575f5ffd5b506004361061007b575f3560e01c806372f702f31161005957806372f702f3146100e95780637b0a47ee14610107578063a694fc3a14610125578063d82e3962146101415761007b565b806316934fc41461007f5780632def6620146100af578063583d42fd146100b9575b5f5ffd5b6100996004803603810190610094919061022e565b610171565b6040516100a69190610271565b60405180910390f35b6100b7610186565b005b6100d360048036038101906100ce919061022e565b610188565b6040516100e09190610271565b60405180910390f35b6100f161019d565b6040516100fe91906102e5565b60405180910390f35b61010f6101c1565b60405161011c9190610271565b60405180910390f35b61013f600480360381019061013a9190610328565b6101c7565b005b61015b6004803603810190610156919061022e565b6101ca565b6040516101689190610271565b60405180910390f35b6001602052805f5260405f205f915090505481565b565b6002602052805f5260405f205f915090505481565b5f5f9054906101000a900473ffffffffffffffffffffffffffffffffffffffff1681565b60035481565b50565b5f919050565b5f5ffd5b5f73ffffffffffffffffffffffffffffffffffffffff82169050919050565b5f6101fd826101d4565b9050919050565b61020d816101f3565b8114610217575f5ffd5b50565b5f8135905061022881610204565b92915050565b5f60208284031215610243576102426101d0565b5b5f6102508482850161021a565b91505092915050565b5f819050919050565b61026b81610259565b82525050565b5f6020820190506102845f830184610262565b92915050565b5f819050919050565b5f6102ad6102a86102a3846101d4565b61028a565b6101d4565b9050919050565b5f6102be82610293565b9050919050565b5f6102cf826102b4565b9050919050565b6102df816102c5565b82525050565b5f6020820190506102f85f8301846102d6565b92915050565b61030781610259565b8114610311575f5ffd5b50565b5f81359050610322816102fe565b92915050565b5f6020828403121561033d5761033c6101d0565b5b5f61034a84828501610314565b9150509291505056fea2646970667358221220bd26a1af9544c2fb59ece57face94cc65ad3c172938ac5a3f94ff8f0d4a9fa5364736f6c634300081c0033","linkReferences":{}},"methodIdentifiers":{"calculateReward(address)":"d82e3962","rewardRate()":"7b0a47ee","stake(uint256)":"a694fc3a","stakes(address)":"16934fc4","stakingTime(address)":"583d42fd","stakingToken()":"72f702f3","unstake()":"2def6620"},"id":47}