{"abi":[{"type":"constructor","inputs":[{"name":"_options","type":"string[]","internalType":"string[]"}],"stateMutability":"nonpayable"},{"type":"function","name":"options","inputs":[{"name":"","type":"uint256","internalType":"uint256"}],"outputs":[{"name":"","type":"string","internalType":"string"}],"stateMutability":"view"},{"type":"function","name":"totalVotesFor","inputs":[{"name":"option","type":"string","internalType":"string"}],"outputs":[{"name":"","type":"uint256","internalType":"uint256"}],"stateMutability":"view"},{"type":"function","name":"vote","inputs":[{"name":"option","type":"string","internalType":"string"}],"outputs":[],"stateMutability":"nonpayable"},{"type":"event","name":"Voted","inputs":[{"name":"who","type":"address","indexed":false,"internalType":"address"},{"name":"what","type":"string","indexed":false,"internalType":"string"}],"anonymous":false}],"bytecode":{"object":"0x608060405234801561000f575f5ffd5b506040516111803803806111808339818101604052810190610031919061034e565b805f908051906020019061004692919061004d565b5050610674565b828054828255905f5260205f20908101928215610093579160200282015b8281111561009257825182908161008291906105a5565b509160200191906001019061006b565b5b5090506100a091906100a4565b5090565b5b808211156100c3575f81816100ba91906100c7565b506001016100a5565b5090565b5080546100d3906103cc565b5f825580601f106100e45750610101565b601f0160209004905f5260205f20908101906101009190610104565b5b50565b5b8082111561011b575f815f905550600101610105565b5090565b5f604051905090565b5f5ffd5b5f5ffd5b5f5ffd5b5f601f19601f8301169050919050565b7f4e487b71000000000000000000000000000000000000000000000000000000005f52604160045260245ffd5b61017a82610134565b810181811067ffffffffffffffff8211171561019957610198610144565b5b80604052505050565b5f6101ab61011f565b90506101b78282610171565b919050565b5f67ffffffffffffffff8211156101d6576101d5610144565b5b602082029050602081019050919050565b5f5ffd5b5f5ffd5b5f67ffffffffffffffff82111561020957610208610144565b5b61021282610134565b9050602081019050919050565b8281835e5f83830152505050565b5f61023f61023a846101ef565b6101a2565b90508281526020810184848401111561025b5761025a6101eb565b5b61026684828561021f565b509392505050565b5f82601f83011261028257610281610130565b5b815161029284826020860161022d565b91505092915050565b5f6102ad6102a8846101bc565b6101a2565b905080838252602082019050602084028301858111156102d0576102cf6101e7565b5b835b8181101561031757805167ffffffffffffffff8111156102f5576102f4610130565b5b808601610302898261026e565b855260208501945050506020810190506102d2565b5050509392505050565b5f82601f83011261033557610334610130565b5b815161034584826020860161029b565b91505092915050565b5f6020828403121561036357610362610128565b5b5f82015167ffffffffffffffff8111156103805761037f61012c565b5b61038c84828501610321565b91505092915050565b5f81519050919050565b7f4e487b71000000000000000000000000000000000000000000000000000000005f52602260045260245ffd5b5f60028204905060018216806103e357607f821691505b6020821081036103f6576103f561039f565b5b50919050565b5f819050815f5260205f209050919050565b5f6020601f8301049050919050565b5f82821b905092915050565b5f600883026104587fffffffffffffffffffffffffffffffffffffffffffffffffffffffffffffffff8261041d565b610462868361041d565b95508019841693508086168417925050509392505050565b5f819050919050565b5f819050919050565b5f6104a66104a161049c8461047a565b610483565b61047a565b9050919050565b5f819050919050565b6104bf8361048c565b6104d36104cb826104ad565b848454610429565b825550505050565b5f5f905090565b6104ea6104db565b6104f58184846104b6565b505050565b5b818110156105185761050d5f826104e2565b6001810190506104fb565b5050565b601f82111561055d5761052e816103fc565b6105378461040e565b81016020851015610546578190505b61055a6105528561040e565b8301826104fa565b50505b505050565b5f82821c905092915050565b5f61057d5f1984600802610562565b1980831691505092915050565b5f610595838361056e565b9150826002028217905092915050565b6105ae82610395565b67ffffffffffffffff8111156105c7576105c6610144565b5b6105d182546103cc565b6105dc82828561051c565b5f60209050601f83116001811461060d575f84156105fb578287015190505b610605858261058a565b86555061066c565b601f19841661061b866103fc565b5f5b828110156106425784890151825560018201915060208501945060208101905061061d565b8683101561065f578489015161065b601f89168261056e565b8355505b6001600288020188555050505b505050505050565b610aff806106815f395ff3fe608060405234801561000f575f5ffd5b506004361061003f575f3560e01c8063409e2205146100435780634a3bf37714610073578063fc36e15b146100a3575b5f5ffd5b61005d6004803603810190610058919061032f565b6100bf565b60405161006a91906103ca565b60405180910390f35b61008d60048036038101906100889190610516565b610164565b60405161009a919061056c565b60405180910390f35b6100bd60048036038101906100b89190610516565b61018b565b005b5f81815481106100cd575f80fd5b905f5260205f20015f9150905080546100e5906105b2565b80601f0160208091040260200160405190810160405280929190818152602001828054610111906105b2565b801561015c5780601f106101335761010080835404028352916020019161015c565b820191905f5260205f20905b81548152906001019060200180831161013f57829003601f168201915b505050505081565b5f600182604051610175919061061c565b9081526020016040518091039020549050919050565b805f5f5b5f805490508110156101ee5782805190602001205f82815481106101b6576101b5610632565b5b905f5260205f20016040516101cb91906106fb565b6040518091039020036101e157600191506101ee565b808060010191505061018f565b508061022f576040517f08c379a00000000000000000000000000000000000000000000000000000000081526004016102269061075b565b60405180910390fd5b8260025f3373ffffffffffffffffffffffffffffffffffffffff1673ffffffffffffffffffffffffffffffffffffffff1681526020019081526020015f2090816102799190610919565b5060018360405161028a919061061c565b90815260200160405180910390205f8154809291906102a890610a15565b91905055507fcb6783276e8a4347387036bbfea000268f0a4b1f8c46ac79980609f2af8d2acd33846040516102de929190610a9b565b60405180910390a1505050565b5f604051905090565b5f5ffd5b5f5ffd5b5f819050919050565b61030e816102fc565b8114610318575f5ffd5b50565b5f8135905061032981610305565b92915050565b5f60208284031215610344576103436102f4565b5b5f6103518482850161031b565b91505092915050565b5f81519050919050565b5f82825260208201905092915050565b8281835e5f83830152505050565b5f601f19601f8301169050919050565b5f61039c8261035a565b6103a68185610364565b93506103b6818560208601610374565b6103bf81610382565b840191505092915050565b5f6020820190508181035f8301526103e28184610392565b905092915050565b5f5ffd5b5f5ffd5b7f4e487b71000000000000000000000000000000000000000000000000000000005f52604160045260245ffd5b61042882610382565b810181811067ffffffffffffffff82111715610447576104466103f2565b5b80604052505050565b5f6104596102eb565b9050610465828261041f565b919050565b5f67ffffffffffffffff821115610484576104836103f2565b5b61048d82610382565b9050602081019050919050565b828183375f83830152505050565b5f6104ba6104b58461046a565b610450565b9050828152602081018484840111156104d6576104d56103ee565b5b6104e184828561049a565b509392505050565b5f82601f8301126104fd576104fc6103ea565b5b813561050d8482602086016104a8565b91505092915050565b5f6020828403121561052b5761052a6102f4565b5b5f82013567ffffffffffffffff811115610548576105476102f8565b5b610554848285016104e9565b91505092915050565b610566816102fc565b82525050565b5f60208201905061057f5f83018461055d565b92915050565b7f4e487b71000000000000000000000000000000000000000000000000000000005f52602260045260245ffd5b5f60028204905060018216806105c957607f821691505b6020821081036105dc576105db610585565b5b50919050565b5f81905092915050565b5f6105f68261035a565b61060081856105e2565b9350610610818560208601610374565b80840191505092915050565b5f61062782846105ec565b915081905092915050565b7f4e487b71000000000000000000000000000000000000000000000000000000005f52603260045260245ffd5b5f81905092915050565b5f819050815f5260205f209050919050565b5f8154610687816105b2565b610691818661065f565b9450600182165f81146106ab57600181146106c0576106f2565b60ff19831686528115158202860193506106f2565b6106c985610669565b5f5b838110156106ea578154818901526001820191506020810190506106cb565b838801955050505b50505092915050565b5f610706828461067b565b915081905092915050565b7f43686f696365206e6f7420666f756e64000000000000000000000000000000005f82015250565b5f610745601083610364565b915061075082610711565b602082019050919050565b5f6020820190508181035f83015261077281610739565b9050919050565b5f819050815f5260205f209050919050565b5f6020601f8301049050919050565b5f82821b905092915050565b5f600883026107d57fffffffffffffffffffffffffffffffffffffffffffffffffffffffffffffffff8261079a565b6107df868361079a565b95508019841693508086168417925050509392505050565b5f819050919050565b5f61081a610815610810846102fc565b6107f7565b6102fc565b9050919050565b5f819050919050565b61083383610800565b61084761083f82610821565b8484546107a6565b825550505050565b5f5f905090565b61085e61084f565b61086981848461082a565b505050565b5b8181101561088c576108815f82610856565b60018101905061086f565b5050565b601f8211156108d1576108a281610779565b6108ab8461078b565b810160208510156108ba578190505b6108ce6108c68561078b565b83018261086e565b50505b505050565b5f82821c905092915050565b5f6108f15f19846008026108d6565b1980831691505092915050565b5f61090983836108e2565b9150826002028217905092915050565b6109228261035a565b67ffffffffffffffff81111561093b5761093a6103f2565b5b61094582546105b2565b610950828285610890565b5f60209050601f831160018114610981575f841561096f578287015190505b61097985826108fe565b8655506109e0565b601f19841661098f86610779565b5f5b828110156109b657848901518255600182019150602085019450602081019050610991565b868310156109d357848901516109cf601f8916826108e2565b8355505b6001600288020188555050505b505050505050565b7f4e487b71000000000000000000000000000000000000000000000000000000005f52601160045260245ffd5b5f610a1f826102fc565b91507fffffffffffffffffffffffffffffffffffffffffffffffffffffffffffffffff8203610a5157610a506109e8565b5b600182019050919050565b5f73ffffffffffffffffffffffffffffffffffffffff82169050919050565b5f610a8582610a5c565b9050919050565b610a9581610a7b565b82525050565b5f604082019050610aae5f830185610a8c565b8181036020830152610ac08184610392565b9050939250505056fea2646970667358221220a1c40dc095ef611a307e95a5823b1a9eda4574357e835f496f998afe79597e5364736f6c634300081c0033","linkReferences":{}},"methodIdentifiers":{"options(uint256)":"409e2205","totalVotesFor(string)":"4a3bf377","vote(string)":"fc36e15b"},"id":40}