{"abi":[{"type":"function","name":"ballots","inputs":[{"name":"","type":"uint256","internalType":"uint256"}],"outputs":[{"name":"question","type":"string","internalType":"string"},{"name":"endDate","type":"uint256","internalType":"uint256"},{"name":"pot","type":"uint256","internalType":"uint256"}],"stateMutability":"view"},{"type":"function","name":"createBallot","inputs":[{"name":"ballot","type":"tuple","internalType":"struct BallotInput","components":[{"name":"question","type":"string","internalType":"string"},{"name":"choices","type":"string[]","internalType":"string[]"},{"name":"endDate","type":"uint256","internalType":"uint256"}]}],"outputs":[{"name":"ballotId","type":"uint256","internalType":"uint256"}],"stateMutability":"payable"},{"type":"function","name":"nextBallotId","inputs":[],"outputs":[{"name":"","type":"uint256","internalType":"uint256"}],"stateMutability":"view"},{"type":"function","name":"vote","inputs":[{"name":"ballotId","type":"uint256","internalType":"uint256"},{"name":"choice","type":"uint256","internalType":"uint256"}],"outputs":[],"stateMutability":"payable"}],"bytecode":{"object":"0x60806040525f5f553480156011575f5ffd5b50610c6f8061001f5f395ff3fe60806040526004361061003e575f3560e01c80631847ce94146100425780635c632b3814610072578063b384abef146100b0578063dc6bfbb5146100cc575b5f5ffd5b61005c6004803603810190610057919061071f565b6100f6565b6040516100699190610775565b60405180910390f35b34801561007d575f5ffd5b506100986004803603810190610093919061078e565b6101ad565b6040516100a793929190610819565b60405180910390f35b6100ca60048036038101906100c59190610855565b610259565b005b3480156100d7575f5ffd5b506100e0610345565b6040516100ed9190610775565b60405180910390f35b5f815f015160015f5f5481526020019081526020015f205f01908161011b9190610a90565b50816020015160015f5f5481526020019081526020015f20600101908051906020019061014992919061034a565b50816040015160015f5f5481526020019081526020015f20600201819055503460015f5f5481526020019081526020015f20600301819055505f5f81548092919061019390610b8c565b919050555060015f546101a69190610bd3565b9050919050565b6001602052805f5260405f205f91509050805f0180546101cc906108c0565b80601f01602080910402602001604051908101604052809291908181526020018280546101f8906108c0565b80156102435780601f1061021a57610100808354040283529160200191610243565b820191905f5260205f20905b81548152906001019060200180831161022657829003601f168201915b5050505050908060020154908060030154905083565b8060015f8481526020019081526020015f206004015f3373ffffffffffffffffffffffffffffffffffffffff1673ffffffffffffffffffffffffffffffffffffffff1681526020019081526020015f205f01819055503460015f8481526020019081526020015f206004015f3373ffffffffffffffffffffffffffffffffffffffff1673ffffffffffffffffffffffffffffffffffffffff1681526020019081526020015f206001015f8282546103109190610c06565b925050819055503460015f8481526020019081526020015f206003015f82825461033a9190610c06565b925050819055505050565b5f5481565b828054828255905f5260205f20908101928215610390579160200282015b8281111561038f57825182908161037f9190610a90565b5091602001919060010190610368565b5b50905061039d91906103a1565b5090565b5b808211156103c0575f81816103b791906103c4565b506001016103a2565b5090565b5080546103d0906108c0565b5f825580601f106103e157506103fe565b601f0160209004905f5260205f20908101906103fd9190610401565b5b50565b5b80821115610418575f815f905550600101610402565b5090565b5f604051905090565b5f5ffd5b5f5ffd5b5f5ffd5b5f601f19601f8301169050919050565b7f4e487b71000000000000000000000000000000000000000000000000000000005f52604160045260245ffd5b61047782610431565b810181811067ffffffffffffffff8211171561049657610495610441565b5b80604052505050565b5f6104a861041c565b90506104b4828261046e565b919050565b5f5ffd5b5f5ffd5b5f5ffd5b5f67ffffffffffffffff8211156104df576104de610441565b5b6104e882610431565b9050602081019050919050565b828183375f83830152505050565b5f610515610510846104c5565b61049f565b905082815260208101848484011115610531576105306104c1565b5b61053c8482856104f5565b509392505050565b5f82601f830112610558576105576104bd565b5b8135610568848260208601610503565b91505092915050565b5f67ffffffffffffffff82111561058b5761058a610441565b5b602082029050602081019050919050565b5f5ffd5b5f6105b26105ad84610571565b61049f565b905080838252602082019050602084028301858111156105d5576105d461059c565b5b835b8181101561061c57803567ffffffffffffffff8111156105fa576105f96104bd565b5b8086016106078982610544565b855260208501945050506020810190506105d7565b5050509392505050565b5f82601f83011261063a576106396104bd565b5b813561064a8482602086016105a0565b91505092915050565b5f819050919050565b61066581610653565b811461066f575f5ffd5b50565b5f813590506106808161065c565b92915050565b5f6060828403121561069b5761069a61042d565b5b6106a5606061049f565b90505f82013567ffffffffffffffff8111156106c4576106c36104b9565b5b6106d084828501610544565b5f83015250602082013567ffffffffffffffff8111156106f3576106f26104b9565b5b6106ff84828501610626565b602083015250604061071384828501610672565b60408301525092915050565b5f6020828403121561073457610733610425565b5b5f82013567ffffffffffffffff81111561075157610750610429565b5b61075d84828501610686565b91505092915050565b61076f81610653565b82525050565b5f6020820190506107885f830184610766565b92915050565b5f602082840312156107a3576107a2610425565b5b5f6107b084828501610672565b91505092915050565b5f81519050919050565b5f82825260208201905092915050565b8281835e5f83830152505050565b5f6107eb826107b9565b6107f581856107c3565b93506108058185602086016107d3565b61080e81610431565b840191505092915050565b5f6060820190508181035f83015261083181866107e1565b90506108406020830185610766565b61084d6040830184610766565b949350505050565b5f5f6040838503121561086b5761086a610425565b5b5f61087885828601610672565b925050602061088985828601610672565b9150509250929050565b7f4e487b71000000000000000000000000000000000000000000000000000000005f52602260045260245ffd5b5f60028204905060018216806108d757607f821691505b6020821081036108ea576108e9610893565b5b50919050565b5f819050815f5260205f209050919050565b5f6020601f8301049050919050565b5f82821b905092915050565b5f6008830261094c7fffffffffffffffffffffffffffffffffffffffffffffffffffffffffffffffff82610911565b6109568683610911565b95508019841693508086168417925050509392505050565b5f819050919050565b5f61099161098c61098784610653565b61096e565b610653565b9050919050565b5f819050919050565b6109aa83610977565b6109be6109b682610998565b84845461091d565b825550505050565b5f5f905090565b6109d56109c6565b6109e08184846109a1565b505050565b5b81811015610a03576109f85f826109cd565b6001810190506109e6565b5050565b601f821115610a4857610a19816108f0565b610a2284610902565b81016020851015610a31578190505b610a45610a3d85610902565b8301826109e5565b50505b505050565b5f82821c905092915050565b5f610a685f1984600802610a4d565b1980831691505092915050565b5f610a808383610a59565b9150826002028217905092915050565b610a99826107b9565b67ffffffffffffffff811115610ab257610ab1610441565b5b610abc82546108c0565b610ac7828285610a07565b5f60209050601f831160018114610af8575f8415610ae6578287015190505b610af08582610a75565b865550610b57565b601f198416610b06866108f0565b5f5b82811015610b2d57848901518255600182019150602085019450602081019050610b08565b86831015610b4a5784890151610b46601f891682610a59565b8355505b6001600288020188555050505b505050505050565b7f4e487b71000000000000000000000000000000000000000000000000000000005f52601160045260245ffd5b5f610b9682610653565b91507fffffffffffffffffffffffffffffffffffffffffffffffffffffffffffffffff8203610bc857610bc7610b5f565b5b600182019050919050565b5f610bdd82610653565b9150610be883610653565b9250828203905081811115610c0057610bff610b5f565b5b92915050565b5f610c1082610653565b9150610c1b83610653565b9250828201905080821115610c3357610c32610b5f565b5b9291505056fea264697066735822122041ea7a0ea5a3a2a905419e41427b41a83068bb381efe4e5ff4bf67924ff572e664736f6c634300081c0033","linkReferences":{}},"methodIdentifiers":{"ballots(uint256)":"5c632b38","createBallot((string,string[],uint256))":"1847ce94","nextBallotId()":"dc6bfbb5","vote(uint256,uint256)":"b384abef"},"id":49}