{"abi":[{"type":"function","name":"balanceOf","inputs":[{"name":"account","type":"address","internalType":"address"}],"outputs":[{"name":"","type":"uint256","internalType":"uint256"}],"stateMutability":"view"},{"type":"function","name":"getTotalSupply","inputs":[],"outputs":[{"name":"","type":"uint256","internalType":"uint256"}],"stateMutability":"view"},{"type":"function","name":"mint","inputs":[{"name":"to","type":"address","internalType":"address"},{"name":"amount","type":"uint256","internalType":"uint256"}],"outputs":[],"stateMutability":"nonpayable"},{"type":"function","name":"transfer","inputs":[{"name":"to","type":"address","internalType":"address"},{"name":"amount","type":"uint256","internalType":"uint256"}],"outputs":[],"stateMutability":"nonpayable"},{"type":"event","name":"Transfer","inputs":[{"name":"from","type":"address","indexed":true,"internalType":"address"},{"name":"to","type":"address","indexed":true,"internalType":"address"},{"name":"amount","type":"uint256","indexed":false,"internalType":"uint256"}],"anonymous":false}],"bytecode":{"object":"0x6080604052348015600e575f5ffd5b506106868061001c5f395ff3fe608060405234801561000f575f5ffd5b506004361061004a575f3560e01c806340c10f191461004e57806370a082311461006a578063a9059cbb1461009a578063c4e41b22146100b6575b5f5ffd5b6100686004803603810190610063919061044c565b6100d4565b005b610084600480360381019061007f919061048a565b610215565b60405161009191906104c4565b60405180910390f35b6100b460048036038101906100af919061044c565b61025a565b005b6100be6103b2565b6040516100cb91906104c4565b60405180910390f35b5f73ffffffffffffffffffffffffffffffffffffffff168273ffffffffffffffffffffffffffffffffffffffff1603610142576040517f08c379a000000000000000000000000000000000000000000000000000000000815260040161013990610537565b60405180910390fd5b8060015f8282546101539190610582565b92505081905550805f5f8473ffffffffffffffffffffffffffffffffffffffff1673ffffffffffffffffffffffffffffffffffffffff1681526020019081526020015f205f8282546101a59190610582565b925050819055508173ffffffffffffffffffffffffffffffffffffffff165f73ffffffffffffffffffffffffffffffffffffffff167fddf252ad1be2c89b69c2b068fc378daa952ba7f163c4a11628f55a4df523b3ef8360405161020991906104c4565b60405180910390a35050565b5f5f5f8373ffffffffffffffffffffffffffffffffffffffff1673ffffffffffffffffffffffffffffffffffffffff1681526020019081526020015f20549050919050565b8061026433610215565b10156102a5576040517f08c379a000000000000000000000000000000000000000000000000000000000815260040161029c906105ff565b60405180910390fd5b805f5f3373ffffffffffffffffffffffffffffffffffffffff1673ffffffffffffffffffffffffffffffffffffffff1681526020019081526020015f205f8282546102f0919061061d565b92505081905550805f5f8473ffffffffffffffffffffffffffffffffffffffff1673ffffffffffffffffffffffffffffffffffffffff1681526020019081526020015f205f8282546103429190610582565b925050819055508173ffffffffffffffffffffffffffffffffffffffff163373ffffffffffffffffffffffffffffffffffffffff167fddf252ad1be2c89b69c2b068fc378daa952ba7f163c4a11628f55a4df523b3ef836040516103a691906104c4565b60405180910390a35050565b5f600154905090565b5f5ffd5b5f73ffffffffffffffffffffffffffffffffffffffff82169050919050565b5f6103e8826103bf565b9050919050565b6103f8816103de565b8114610402575f5ffd5b50565b5f81359050610413816103ef565b92915050565b5f819050919050565b61042b81610419565b8114610435575f5ffd5b50565b5f8135905061044681610422565b92915050565b5f5f60408385031215610462576104616103bb565b5b5f61046f85828601610405565b925050602061048085828601610438565b9150509250929050565b5f6020828403121561049f5761049e6103bb565b5b5f6104ac84828501610405565b91505092915050565b6104be81610419565b82525050565b5f6020820190506104d75f8301846104b5565b92915050565b5f82825260208201905092915050565b7f496e76616c6964206164647265737300000000000000000000000000000000005f82015250565b5f610521600f836104dd565b915061052c826104ed565b602082019050919050565b5f6020820190508181035f83015261054e81610515565b9050919050565b7f4e487b71000000000000000000000000000000000000000000000000000000005f52601160045260245ffd5b5f61058c82610419565b915061059783610419565b92508282019050808211156105af576105ae610555565b5b92915050565b7f496e73756666696369656e742066756e647300000000000000000000000000005f82015250565b5f6105e96012836104dd565b91506105f4826105b5565b602082019050919050565b5f6020820190508181035f830152610616816105dd565b9050919050565b5f61062782610419565b915061063283610419565b925082820390508181111561064a57610649610555565b5b9291505056fea264697066735822122090c96d0a2e089619755b0db8e5d35abd5975947b0b06b99065e8ba3871b0541b64736f6c634300081c0033","linkReferences":{}},"methodIdentifiers":{"balanceOf(address)":"70a08231","getTotalSupply()":"c4e41b22","mint(address,uint256)":"40c10f19","transfer(address,uint256)":"a9059cbb"},"id":20}