{"abi":[{"type":"constructor","inputs":[{"name":"_options","type":"string[]","internalType":"string[]"}],"stateMutability":"nonpayable"},{"type":"function","name":"options","inputs":[{"name":"","type":"uint256","internalType":"uint256"}],"outputs":[{"name":"","type":"string","internalType":"string"}],"stateMutability":"view"},{"type":"function","name":"totalVotesFor","inputs":[{"name":"option","type":"string","internalType":"string"}],"outputs":[{"name":"","type":"uint256","internalType":"uint256"}],"stateMutability":"view"},{"type":"function","name":"vote","inputs":[{"name":"option","type":"string","internalType":"string"}],"outputs":[],"stateMutability":"nonpayable"},{"type":"event","name":"Voted","inputs":[{"name":"who","type":"address","indexed":false,"internalType":"address"},{"name":"what","type":"string","indexed":false,"internalType":"string"}],"anonymous":false}],"bytecode":{"object":"0x608060405234801561000f575f5ffd5b50604051610ec4380380610ec48339818101604052810190610031919061034e565b805f908051906020019061004692919061004d565b5050610674565b828054828255905f5260205f20908101928215610093579160200282015b8281111561009257825182908161008291906105a5565b509160200191906001019061006b565b5b5090506100a091906100a4565b5090565b5b808211156100c3575f81816100ba91906100c7565b506001016100a5565b5090565b5080546100d3906103cc565b5f825580601f106100e45750610101565b601f0160209004905f5260205f20908101906101009190610104565b5b50565b5b8082111561011b575f815f905550600101610105565b5090565b5f604051905090565b5f5ffd5b5f5ffd5b5f5ffd5b5f601f19601f8301169050919050565b7f4e487b71000000000000000000000000000000000000000000000000000000005f52604160045260245ffd5b61017a82610134565b810181811067ffffffffffffffff8211171561019957610198610144565b5b80604052505050565b5f6101ab61011f565b90506101b78282610171565b919050565b5f67ffffffffffffffff8211156101d6576101d5610144565b5b602082029050602081019050919050565b5f5ffd5b5f5ffd5b5f67ffffffffffffffff82111561020957610208610144565b5b61021282610134565b9050602081019050919050565b8281835e5f83830152505050565b5f61023f61023a846101ef565b6101a2565b90508281526020810184848401111561025b5761025a6101eb565b5b61026684828561021f565b509392505050565b5f82601f83011261028257610281610130565b5b815161029284826020860161022d565b91505092915050565b5f6102ad6102a8846101bc565b6101a2565b905080838252602082019050602084028301858111156102d0576102cf6101e7565b5b835b8181101561031757805167ffffffffffffffff8111156102f5576102f4610130565b5b808601610302898261026e565b855260208501945050506020810190506102d2565b5050509392505050565b5f82601f83011261033557610334610130565b5b815161034584826020860161029b565b91505092915050565b5f6020828403121561036357610362610128565b5b5f82015167ffffffffffffffff8111156103805761037f61012c565b5b61038c84828501610321565b91505092915050565b5f81519050919050565b7f4e487b71000000000000000000000000000000000000000000000000000000005f52602260045260245ffd5b5f60028204905060018216806103e357607f821691505b6020821081036103f6576103f561039f565b5b50919050565b5f819050815f5260205f209050919050565b5f6020601f8301049050919050565b5f82821b905092915050565b5f600883026104587fffffffffffffffffffffffffffffffffffffffffffffffffffffffffffffffff8261041d565b610462868361041d565b95508019841693508086168417925050509392505050565b5f819050919050565b5f819050919050565b5f6104a66104a161049c8461047a565b610483565b61047a565b9050919050565b5f819050919050565b6104bf8361048c565b6104d36104cb826104ad565b848454610429565b825550505050565b5f5f905090565b6104ea6104db565b6104f58184846104b6565b505050565b5b818110156105185761050d5f826104e2565b6001810190506104fb565b5050565b601f82111561055d5761052e816103fc565b6105378461040e565b81016020851015610546578190505b61055a6105528561040e565b8301826104fa565b50505b505050565b5f82821c905092915050565b5f61057d5f1984600802610562565b1980831691505092915050565b5f610595838361056e565b9150826002028217905092915050565b6105ae82610395565b67ffffffffffffffff8111156105c7576105c6610144565b5b6105d182546103cc565b6105dc82828561051c565b5f60209050601f83116001811461060d575f84156105fb578287015190505b610605858261058a565b86555061066c565b601f19841661061b866103fc565b5f5b828110156106425784890151825560018201915060208501945060208101905061061d565b8683101561065f578489015161065b601f89168261056e565b8355505b6001600288020188555050505b505050505050565b610843806106815f395ff3fe608060405234801561000f575f5ffd5b506004361061003f575f3560e01c8063409e2205146100435780634a3bf37714610073578063fc36e15b146100a3575b5f5ffd5b61005d600480360381019061005891906102e2565b6100bf565b60405161006a919061037d565b60405180910390f35b61008d600480360381019061008891906104c9565b610164565b60405161009a919061051f565b60405180910390f35b6100bd60048036038101906100b891906104c9565b61018b565b005b5f81815481106100cd575f80fd5b905f5260205f20015f9150905080546100e590610565565b80601f016020809104026020016040519081016040528092919081815260200182805461011190610565565b801561015c5780601f106101335761010080835404028352916020019161015c565b820191905f5260205f20905b81548152906001019060200180831161013f57829003601f168201915b505050505081565b5f60018260405161017591906105cf565b9081526020016040518091039020549050919050565b5f5f5b5f805490508110156101ed5782805190602001205f82815481106101b5576101b46105e5565b5b905f5260205f20016040516101ca91906106ae565b6040518091039020036101e057600191506101ed565b808060010191505061018e565b508061022e576040517f08c379a00000000000000000000000000000000000000000000000000000000081526004016102259061070e565b60405180910390fd5b60018260405161023e91906105cf565b90815260200160405180910390205f81548092919061025c90610759565b91905055507fcb6783276e8a4347387036bbfea000268f0a4b1f8c46ac79980609f2af8d2acd33836040516102929291906107df565b60405180910390a15050565b5f604051905090565b5f5ffd5b5f5ffd5b5f819050919050565b6102c1816102af565b81146102cb575f5ffd5b50565b5f813590506102dc816102b8565b92915050565b5f602082840312156102f7576102f66102a7565b5b5f610304848285016102ce565b91505092915050565b5f81519050919050565b5f82825260208201905092915050565b8281835e5f83830152505050565b5f601f19601f8301169050919050565b5f61034f8261030d565b6103598185610317565b9350610369818560208601610327565b61037281610335565b840191505092915050565b5f6020820190508181035f8301526103958184610345565b905092915050565b5f5ffd5b5f5ffd5b7f4e487b71000000000000000000000000000000000000000000000000000000005f52604160045260245ffd5b6103db82610335565b810181811067ffffffffffffffff821117156103fa576103f96103a5565b5b80604052505050565b5f61040c61029e565b905061041882826103d2565b919050565b5f67ffffffffffffffff821115610437576104366103a5565b5b61044082610335565b9050602081019050919050565b828183375f83830152505050565b5f61046d6104688461041d565b610403565b905082815260208101848484011115610489576104886103a1565b5b61049484828561044d565b509392505050565b5f82601f8301126104b0576104af61039d565b5b81356104c084826020860161045b565b91505092915050565b5f602082840312156104de576104dd6102a7565b5b5f82013567ffffffffffffffff8111156104fb576104fa6102ab565b5b6105078482850161049c565b91505092915050565b610519816102af565b82525050565b5f6020820190506105325f830184610510565b92915050565b7f4e487b71000000000000000000000000000000000000000000000000000000005f52602260045260245ffd5b5f600282049050600182168061057c57607f821691505b60208210810361058f5761058e610538565b5b50919050565b5f81905092915050565b5f6105a98261030d565b6105b38185610595565b93506105c3818560208601610327565b80840191505092915050565b5f6105da828461059f565b915081905092915050565b7f4e487b71000000000000000000000000000000000000000000000000000000005f52603260045260245ffd5b5f81905092915050565b5f819050815f5260205f209050919050565b5f815461063a81610565565b6106448186610612565b9450600182165f811461065e5760018114610673576106a5565b60ff19831686528115158202860193506106a5565b61067c8561061c565b5f5b8381101561069d5781548189015260018201915060208101905061067e565b838801955050505b50505092915050565b5f6106b9828461062e565b915081905092915050565b7f43686f696365206e6f7420666f756e64000000000000000000000000000000005f82015250565b5f6106f8601083610317565b9150610703826106c4565b602082019050919050565b5f6020820190508181035f830152610725816106ec565b9050919050565b7f4e487b71000000000000000000000000000000000000000000000000000000005f52601160045260245ffd5b5f610763826102af565b91507fffffffffffffffffffffffffffffffffffffffffffffffffffffffffffffffff82036107955761079461072c565b5b600182019050919050565b5f73ffffffffffffffffffffffffffffffffffffffff82169050919050565b5f6107c9826107a0565b9050919050565b6107d9816107bf565b82525050565b5f6040820190506107f25f8301856107d0565b81810360208301526108048184610345565b9050939250505056fea2646970667358221220f3c59670038504205ef3d3374ecd53fa078ac0df1b45bdac1c6ffe12c914c09e64736f6c634300081c0033","linkReferences":{}},"methodIdentifiers":{"options(uint256)":"409e2205","totalVotesFor(string)":"4a3bf377","vote(string)":"fc36e15b"},"id":39}