{"abi":[{"type":"function","name":"addValue","inputs":[{"name":"value","type":"uint256","internalType":"uint256"}],"outputs":[],"stateMutability":"nonpayable"},{"type":"function","name":"getValue","inputs":[{"name":"index","type":"uint256","internalType":"uint256"}],"outputs":[{"name":"","type":"uint256","internalType":"uint256"}],"stateMutability":"view"},{"type":"function","name":"removeValue","inputs":[{"name":"index","type":"uint256","internalType":"uint256"}],"outputs":[],"stateMutability":"nonpayable"}],"bytecode":{"object":"0x6080604052348015600e575f5ffd5b506103278061001c5f395ff3fe608060405234801561000f575f5ffd5b506004361061003f575f3560e01c80630ff4c9161461004357806332fa92b2146100735780635b9af12b1461008f575b5f5ffd5b61005d600480360381019061005891906101de565b6100ab565b60405161006a9190610218565b60405180910390f35b61008d600480360381019061008891906101de565b6100cf565b005b6100a960048036038101906100a491906101de565b61017f565b005b5f5f82815481106100bf576100be610231565b5b905f5260205f2001549050919050565b5f8054905081101561017c575f8190505b60015f805490506100f1919061028b565b81101561014c575f60018261010691906102be565b8154811061011757610116610231565b5b905f5260205f2001545f828154811061013357610132610231565b5b905f5260205f20018190555080806001019150506100e0565b505f60015f8054905061015f919061028b565b815481106101705761016f610231565b5b905f5260205f20015f90555b50565b5f81908060018154018082558091505060019003905f5260205f20015f909190919091505550565b5f5ffd5b5f819050919050565b6101bd816101ab565b81146101c7575f5ffd5b50565b5f813590506101d8816101b4565b92915050565b5f602082840312156101f3576101f26101a7565b5b5f610200848285016101ca565b91505092915050565b610212816101ab565b82525050565b5f60208201905061022b5f830184610209565b92915050565b7f4e487b71000000000000000000000000000000000000000000000000000000005f52603260045260245ffd5b7f4e487b71000000000000000000000000000000000000000000000000000000005f52601160045260245ffd5b5f610295826101ab565b91506102a0836101ab565b92508282039050818111156102b8576102b761025e565b5b92915050565b5f6102c8826101ab565b91506102d3836101ab565b92508282019050808211156102eb576102ea61025e565b5b9291505056fea2646970667358221220dac32ce976a24dbe770f7766dbe16629cda1cf4a5b2037813b601b75096de91a64736f6c634300081c0033","linkReferences":{}},"methodIdentifiers":{"addValue(uint256)":"5b9af12b","getValue(uint256)":"0ff4c916","removeValue(uint256)":"32fa92b2"},"id":20}