{"abi":[{"type":"constructor","inputs":[{"name":"initial","type":"string","internalType":"string"}],"stateMutability":"nonpayable"},{"type":"function","name":"admins","inputs":[{"name":"","type":"address","internalType":"address"}],"outputs":[{"name":"","type":"bool","internalType":"bool"}],"stateMutability":"view"},{"type":"function","name":"message","inputs":[],"outputs":[{"name":"","type":"string","internalType":"string"}],"stateMutability":"view"},{"type":"function","name":"modos","inputs":[{"name":"","type":"address","internalType":"address"}],"outputs":[{"name":"","type":"bool","internalType":"bool"}],"stateMutability":"view"},{"type":"function","name":"setAdmin","inputs":[{"name":"who","type":"address","internalType":"address"},{"name":"isAdmin","type":"bool","internalType":"bool"}],"outputs":[],"stateMutability":"nonpayable"},{"type":"function","name":"setMessage","inputs":[{"name":"newMessage","type":"string","internalType":"string"}],"outputs":[],"stateMutability":"nonpayable"},{"type":"function","name":"setModo","inputs":[{"name":"who","type":"address","internalType":"address"},{"name":"isModo","type":"bool","internalType":"bool"}],"outputs":[],"stateMutability":"nonpayable"}],"bytecode":{"object":"0x608060405234801561000f575f5ffd5b506040516110d03803806110d0833981810160405281019061003191906101e8565b8060029081610040919061043f565b5060015f5f3373ffffffffffffffffffffffffffffffffffffffff1673ffffffffffffffffffffffffffffffffffffffff1681526020019081526020015f205f6101000a81548160ff0219169083151502179055505061050e565b5f604051905090565b5f5ffd5b5f5ffd5b5f5ffd5b5f5ffd5b5f601f19601f8301169050919050565b7f4e487b71000000000000000000000000000000000000000000000000000000005f52604160045260245ffd5b6100fa826100b4565b810181811067ffffffffffffffff82111715610119576101186100c4565b5b80604052505050565b5f61012b61009b565b905061013782826100f1565b919050565b5f67ffffffffffffffff821115610156576101556100c4565b5b61015f826100b4565b9050602081019050919050565b8281835e5f83830152505050565b5f61018c6101878461013c565b610122565b9050828152602081018484840111156101a8576101a76100b0565b5b6101b384828561016c565b509392505050565b5f82601f8301126101cf576101ce6100ac565b5b81516101df84826020860161017a565b91505092915050565b5f602082840312156101fd576101fc6100a4565b5b5f82015167ffffffffffffffff81111561021a576102196100a8565b5b610226848285016101bb565b91505092915050565b5f81519050919050565b7f4e487b71000000000000000000000000000000000000000000000000000000005f52602260045260245ffd5b5f600282049050600182168061027d57607f821691505b6020821081036102905761028f610239565b5b50919050565b5f819050815f5260205f209050919050565b5f6020601f8301049050919050565b5f82821b905092915050565b5f600883026102f27fffffffffffffffffffffffffffffffffffffffffffffffffffffffffffffffff826102b7565b6102fc86836102b7565b95508019841693508086168417925050509392505050565b5f819050919050565b5f819050919050565b5f61034061033b61033684610314565b61031d565b610314565b9050919050565b5f819050919050565b61035983610326565b61036d61036582610347565b8484546102c3565b825550505050565b5f5f905090565b610384610375565b61038f818484610350565b505050565b5b818110156103b2576103a75f8261037c565b600181019050610395565b5050565b601f8211156103f7576103c881610296565b6103d1846102a8565b810160208510156103e0578190505b6103f46103ec856102a8565b830182610394565b50505b505050565b5f82821c905092915050565b5f6104175f19846008026103fc565b1980831691505092915050565b5f61042f8383610408565b9150826002028217905092915050565b6104488261022f565b67ffffffffffffffff811115610461576104606100c4565b5b61046b8254610266565b6104768282856103b6565b5f60209050601f8311600181146104a7575f8415610495578287015190505b61049f8582610424565b865550610506565b601f1984166104b586610296565b5f5b828110156104dc578489015182556001820191506020850194506020810190506104b7565b868310156104f957848901516104f5601f891682610408565b8355505b6001600288020188555050505b505050505050565b610bb58061051b5f395ff3fe608060405234801561000f575f5ffd5b5060043610610060575f3560e01c8063368b877214610064578063429b62e5146100805780634b0bddd2146100b057806370365fd5146100cc5780639e03f979146100e8578063e21f37ce14610118575b5f5ffd5b61007e600480360381019061007991906105f3565b610136565b005b61009a60048036038101906100959190610694565b610222565b6040516100a791906106d9565b60405180910390f35b6100ca60048036038101906100c5919061071c565b61023e565b005b6100e660048036038101906100e1919061071c565b61031d565b005b61010260048036038101906100fd9190610694565b6103fd565b60405161010f91906106d9565b60405180910390f35b61012061041a565b60405161012d91906107ba565b60405180910390f35b60015f3373ffffffffffffffffffffffffffffffffffffffff1673ffffffffffffffffffffffffffffffffffffffff1681526020019081526020015f205f9054906101000a900460ff16806101d057505f5f3373ffffffffffffffffffffffffffffffffffffffff1673ffffffffffffffffffffffffffffffffffffffff1681526020019081526020015f205f9054906101000a900460ff165b61020f576040517f08c379a000000000000000000000000000000000000000000000000000000000815260040161020690610824565b60405180910390fd5b806002908161021e9190610a48565b5050565b5f602052805f5260405f205f915054906101000a900460ff1681565b5f5f3373ffffffffffffffffffffffffffffffffffffffff1673ffffffffffffffffffffffffffffffffffffffff1681526020019081526020015f205f9054906101000a900460ff166102c6576040517f08c379a00000000000000000000000000000000000000000000000000000000081526004016102bd90610b61565b60405180910390fd5b805f5f8473ffffffffffffffffffffffffffffffffffffffff1673ffffffffffffffffffffffffffffffffffffffff1681526020019081526020015f205f6101000a81548160ff0219169083151502179055505050565b5f5f3373ffffffffffffffffffffffffffffffffffffffff1673ffffffffffffffffffffffffffffffffffffffff1681526020019081526020015f205f9054906101000a900460ff166103a5576040517f08c379a000000000000000000000000000000000000000000000000000000000815260040161039c90610b61565b60405180910390fd5b8060015f8473ffffffffffffffffffffffffffffffffffffffff1673ffffffffffffffffffffffffffffffffffffffff1681526020019081526020015f205f6101000a81548160ff0219169083151502179055505050565b6001602052805f5260405f205f915054906101000a900460ff1681565b600280546104279061086f565b80601f01602080910402602001604051908101604052809291908181526020018280546104539061086f565b801561049e5780601f106104755761010080835404028352916020019161049e565b820191905f5260205f20905b81548152906001019060200180831161048157829003601f168201915b505050505081565b5f604051905090565b5f5ffd5b5f5ffd5b5f5ffd5b5f5ffd5b5f601f19601f8301169050919050565b7f4e487b71000000000000000000000000000000000000000000000000000000005f52604160045260245ffd5b610505826104bf565b810181811067ffffffffffffffff82111715610524576105236104cf565b5b80604052505050565b5f6105366104a6565b905061054282826104fc565b919050565b5f67ffffffffffffffff821115610561576105606104cf565b5b61056a826104bf565b9050602081019050919050565b828183375f83830152505050565b5f61059761059284610547565b61052d565b9050828152602081018484840111156105b3576105b26104bb565b5b6105be848285610577565b509392505050565b5f82601f8301126105da576105d96104b7565b5b81356105ea848260208601610585565b91505092915050565b5f60208284031215610608576106076104af565b5b5f82013567ffffffffffffffff811115610625576106246104b3565b5b610631848285016105c6565b91505092915050565b5f73ffffffffffffffffffffffffffffffffffffffff82169050919050565b5f6106638261063a565b9050919050565b61067381610659565b811461067d575f5ffd5b50565b5f8135905061068e8161066a565b92915050565b5f602082840312156106a9576106a86104af565b5b5f6106b684828501610680565b91505092915050565b5f8115159050919050565b6106d3816106bf565b82525050565b5f6020820190506106ec5f8301846106ca565b92915050565b6106fb816106bf565b8114610705575f5ffd5b50565b5f81359050610716816106f2565b92915050565b5f5f60408385031215610732576107316104af565b5b5f61073f85828601610680565b925050602061075085828601610708565b9150509250929050565b5f81519050919050565b5f82825260208201905092915050565b8281835e5f83830152505050565b5f61078c8261075a565b6107968185610764565b93506107a6818560208601610774565b6107af816104bf565b840191505092915050565b5f6020820190508181035f8301526107d28184610782565b905092915050565b7f4f6e6c79206d6f646f206f722061646d696e00000000000000000000000000005f82015250565b5f61080e601283610764565b9150610819826107da565b602082019050919050565b5f6020820190508181035f83015261083b81610802565b9050919050565b7f4e487b71000000000000000000000000000000000000000000000000000000005f52602260045260245ffd5b5f600282049050600182168061088657607f821691505b60208210810361089957610898610842565b5b50919050565b5f819050815f5260205f209050919050565b5f6020601f8301049050919050565b5f82821b905092915050565b5f600883026108fb7fffffffffffffffffffffffffffffffffffffffffffffffffffffffffffffffff826108c0565b61090586836108c0565b95508019841693508086168417925050509392505050565b5f819050919050565b5f819050919050565b5f61094961094461093f8461091d565b610926565b61091d565b9050919050565b5f819050919050565b6109628361092f565b61097661096e82610950565b8484546108cc565b825550505050565b5f5f905090565b61098d61097e565b610998818484610959565b505050565b5b818110156109bb576109b05f82610985565b60018101905061099e565b5050565b601f821115610a00576109d18161089f565b6109da846108b1565b810160208510156109e9578190505b6109fd6109f5856108b1565b83018261099d565b50505b505050565b5f82821c905092915050565b5f610a205f1984600802610a05565b1980831691505092915050565b5f610a388383610a11565b9150826002028217905092915050565b610a518261075a565b67ffffffffffffffff811115610a6a57610a696104cf565b5b610a74825461086f565b610a7f8282856109bf565b5f60209050601f831160018114610ab0575f8415610a9e578287015190505b610aa88582610a2d565b865550610b0f565b601f198416610abe8661089f565b5f5b82811015610ae557848901518255600182019150602085019450602081019050610ac0565b86831015610b025784890151610afe601f891682610a11565b8355505b6001600288020188555050505b505050505050565b7f4f6e6c792061646d696e000000000000000000000000000000000000000000005f82015250565b5f610b4b600a83610764565b9150610b5682610b17565b602082019050919050565b5f6020820190508181035f830152610b7881610b3f565b905091905056fea26469706673582212200792bf7178d1a85f96f4b216506a035743f764c761651519114f09417b2874e164736f6c634300081c0033","linkReferences":{}},"methodIdentifiers":{"admins(address)":"429b62e5","message()":"e21f37ce","modos(address)":"9e03f979","setAdmin(address,bool)":"4b0bddd2","setMessage(string)":"368b8772","setModo(address,bool)":"70365fd5"},"id":53}