{"abi":[{"type":"constructor","inputs":[{"name":"_initialRate","type":"uint256","internalType":"uint256"}],"stateMutability":"nonpayable"},{"type":"receive","stateMutability":"payable"},{"type":"function","name":"admin","inputs":[],"outputs":[{"name":"","type":"address","internalType":"address"}],"stateMutability":"view"},{"type":"function","name":"getBalance","inputs":[],"outputs":[{"name":"","type":"uint256","internalType":"uint256"}],"stateMutability":"view"},{"type":"function","name":"rate","inputs":[],"outputs":[{"name":"","type":"uint256","internalType":"uint256"}],"stateMutability":"view"}],"bytecode":{"object":"0x6080604052348015600e575f5ffd5b5060405161028e38038061028e8339818101604052810190602e919060ab565b335f5f6101000a81548173ffffffffffffffffffffffffffffffffffffffff021916908373ffffffffffffffffffffffffffffffffffffffff160217905550806001819055505060d1565b5f5ffd5b5f819050919050565b608d81607d565b81146096575f5ffd5b50565b5f8151905060a5816086565b92915050565b5f6020828403121560bd5760bc6079565b5b5f60c8848285016099565b91505092915050565b6101b0806100de5f395ff3fe608060405260043610610037575f3560e01c806312065fe0146100425780632c4e722e1461006c578063f851a440146100965761003e565b3661003e57005b5f5ffd5b34801561004d575f5ffd5b506100566100c0565b6040516100639190610109565b60405180910390f35b348015610077575f5ffd5b506100806100c7565b60405161008d9190610109565b60405180910390f35b3480156100a1575f5ffd5b506100aa6100cd565b6040516100b79190610161565b60405180910390f35b5f47905090565b60015481565b5f5f9054906101000a900473ffffffffffffffffffffffffffffffffffffffff1681565b5f819050919050565b610103816100f1565b82525050565b5f60208201905061011c5f8301846100fa565b92915050565b5f73ffffffffffffffffffffffffffffffffffffffff82169050919050565b5f61014b82610122565b9050919050565b61015b81610141565b82525050565b5f6020820190506101745f830184610152565b9291505056fea2646970667358221220b8885b9c6cc513c6231c057330724ee20981a2daecc95b8a7daaeb290f62d8ee64736f6c634300081c0033","linkReferences":{}},"methodIdentifiers":{"admin()":"f851a440","getBalance()":"12065fe0","rate()":"2c4e722e"},"id":48}